S01B00007572735F7A617672736E695F70726F6A656B742E73726563E5
S11300000C942A000C9447000C9447000C9447006D
S11300100C9447000C9447000C9447000C94470040
S11300200C9447000C9447000C9447000C94470030
S11300300C9447000C9447000C9447000C94470020
S11300400C9447000C9447000C9447000C94470010
S11300500C94470011241FBECFE5D8E0DEBFCDBF0E
S113006011E0A0E6B0E0E2E2FEE102C005900D92EC
S1130070A039B107D9F721E0A0E9B1E001C01D9290
S1130080AE3BB207E1F70E94A8080C940F0F0C9442
S1130090000088B3806B88BB0895C79897E0482F09
S11300A050E09A01092E02C0359527950A94E2F78B
S11300B020FF02C0C59A01C0C598C798C79A91503D
S11300C080F708952CE080E090E0880F991FC79A8C
S11300D0C79836B336FB442740F950E0840F951F88
S11300E0215099F70895662311F0A89A01C0A898A1
S11300F0AF989BBB82BBA99AA998AF9A0895CF9356
S1130100DF93EB0160E00E94730061E0CE010E9486
S11301107300DF91CF910895EF92FF920F931F9395
S1130120CF93DF938C01EB01790160E070E0742FD1
S1130130680F791F84E490E00E947F00BE0185E48B
S113014090E00E947F00B70186E490E00E947F0067
S1130150B8018EE490E00E947F00BE018FE490E03D
S11301600E947F0060E082E290E00E947300DF91D1
S1130170CF911F910F91FF90EF9008958FEF8ABB5D
S113018081BB84B3836C84BB8EEB87BB87B38660EF
S113019087BB88B3866088BB8FEF93E20197F1F742
S11301A000C00000C1988FEF97E40197F1F700C0F9
S11301B00000C19AAF9AAE9AA9988FEF9FE8019771
S11301C0F1F700C0000061E070E080E090E00E9480
S11301D07F0083E397E00197F1F764EA78EA83E02C
S11301E090E00E947F0083E397E00197F1F760E0DD
S11301F070E08CE090E00E947F0083E397E0019739
S1130200F1F76CE078E08DE090E00E947F0083E3FA
S113021097E00197F1F760E07BE28EE090E00E94C6
S11302207F0083E397E00197F1F760EB70E08EE1E4
S113023090E00E947F0083E397E00197F1F76FE37A
S11302407BE281E090E00E947F0083E397E00197E6
S1130250F1F760E076E082E090E00E947F0083E3C3
S113026097E00197F1F760E070E080E190E00E9490
S11302707F0083E397E00197F1F760E770E681E19F
S113028090E00E947F0083E397E00197F1F760E03C
S113029070E085E090E00E947F0083E397E001979F
S11302A0F1F760E070E086E090E00E947F0083E375
S11302B097E00197F1F76CE17FEE86E190E00E9410
S11302C07F0083E397E00197F1F763E070E087E153
S11302D090E00E947F0083E397E00197F1F763E3E6
S11302E072E087E090E00E947F0083E397E001974B
S11302F0F1F760E070E08BE090E00E947F0083E320
S113030097E00197F1F760E070E08FE090E00E94E1
S11303107F0083E397E00197F1F760E070E081E408
S113032090E00E947F0083E397E00197F1F760E09B
S113033070E082E490E00E947F0083E397E00197FD
S1130340F1F760E070E088E490E00E947F0083E3CE
S113035097E00197F1F76FE371E089E490E00E9480
S11303607F0083E397E00197F1F760E070E08AE4AF
S113037090E00E947F0083E397E00197F1F760E04B
S113038070E08BE490E00E947F0083E397E00197A4
S1130390F1F760E07FEE84E490E00E947F0083E365
S11303A097E00197F1F760E070E085E490E00E9447
S11303B07F0083E397E00197F1F76FE371E086E450
S11303C090E00E947F0083E397E00197F1F767E0F4
S11303D077E080E390E00E947F0083E397E0019759
S11303E0F1F764E072E081E390E00E947F0083E330
S11303F097E00197F1F764E072E082E390E00E94F5
S11304007F0083E397E00197F1F762E075E083E30F
S113041090E00E947F0083E397E00197F1F767E0A3
S113042075E084E390E00E947F0083E397E0019706
S1130430F1F764E072E085E390E00E947F0083E3DB
S113044097E00197F1F764E072E086E390E00E94A0
S11304507F0083E397E00197F1F762E075E087E3BB
S113046090E00E947F0083E397E00197F1F762E058
S113047073E08AE390E00E947F0083E397E00197B2
S1130480F1F762E073E08BE390E00E947F0083E386
S113049097E00197F1F760E070E083E290E00E945A
S11304A07F0083E397E00197F1F760E070E084E276
S11304B090E00E947F0083E397E00197F1F760E00A
S11304C070E08FE490E00E947F0060E070E08EE4D2
S11304D090E00E947F0060E082E290E00E9473005E
S11304E00895CF93DF93EB01BC018EE490E00E946A
S11304F07F0060E471E06C1B7D0B8FE490E00E9450
S11305007F0060E082E290E00E947300DF91CF916F
S113051008950F931F93CF93DF93EC018B0183E333
S113052097E00197F1F7C49880E90E944D00E3E356
S1130530F7E03197F1F7C79A0000000000000000CF
S1130540C79800000000000000000E9462009C01A7
S113055020553109ABEABAEA0E94160C96958795A4
S113056096958795F8019183808380ED0E944D00D4
S1130570C79A0000000000000000C79800000000B7
S1130580000000000E9462008055910996958795AD
S1130590969587959695879599838883C49ADF91D4
S11305A0CF911F910F910895EF92FF920F931F9394
S11305B0CF938C012FE331E04FEE50E060E070E028
S11305C080E090E00E948C006894EE24E6F8FF241A
S11305D0F394C0EF61E0C8010E947300C150D1F7E9
S11305E081E0E81AF108A9F7CF911F910F91FF90CC
S11305F0EF900895CF93DF93EA01AF980E947102C0
S113060061E0CE010E947300AF9ADF91CF9108950B
S11306108F929F92AF92BF92CF92DF92EF92FF920E
S11306200F931F93CF93DF932223E9F0A22E6A0145
S11306304B01082F192FB12C8FEF820F7B019FEFF5
S1130640E91AF90AE80EF11CE401A601BE01C80189
S11306500E94FA022196CE15DF05B9F7B3940F5F15
S11306601F4FAB10F1CFDF91CF911F910F91FF90EE
S1130670EF90DF90CF90BF90AF909F908F900895B0
S11306802F923F924F925F926F927F928F929F929E
S1130690AF92BF92CF92DF92EF92FF920F931F938C
S11306A0CF93DF9300D000D0CDB7DEB789839A8390
S11306B06B01542E39011801F12C4701880C991C47
S11306C0880C991CC4018E0D9F1D9C012A523F4F1A
S11306D049010F2EF5E04F2EF02DA42EB12CF4017C
S11306E0E1904F0109811A811C821B82F12CC70100
S11306F00B8002C0959587950A94E2F780FF07C0A6
S1130700252DA301B601C8010E94080306C0252DAA
S1130710A101B601C8010E9408032B813C812F5F0F
S11307203F4F3C832B830A0D1B1D28303105F9F6FE
S1130730CA0CDB1C4A944110D2CF0F900F900F903B
S11307400F90DF91CF911F910F91FF90EF90DF9069
S1130750CF90BF90AF909F908F907F906F905F905D
S11307604F903F902F9008953F924F925F926F92D7
S11307707F928F929F92AF92BF92CF92DF92EF922D
S1130780FF920F931F93CF93DF93EB01342E490114
S113079028016701A42EB12C9501220F331F220FCB
S11307A0331FA20EB31E2FEFA21AB20AF12C3C0182
S11307B0640E711CF601EF0DF11D8081803261F42D
S11307C00F2EFAE1EF2EF02D82019401432DBE018C
S11307D0C3010E94400397C0803361F40F2EFBE1F4
S11307E0EF2EF02D82019401432DBE01C3010E941E
S11307F0400389C0813361F40F2EFCE1EF2EF02D0C
S113080082019401432DBE01C3010E9440037BC0B9
S1130810823361F40F2EFDE1EF2EF02D820194015D
S1130820432DBE01C3010E9440036DC0833361F4B4
S11308300F2EFEE1EF2EF02D82019401432DBE0117
S1130840C3010E9440035FC0843361F40F2EFFE1B3
S1130850EF2EF02D82019401432DBE01C3010E94AD
S1130860400351C0853359F46894EE24E5F88201BD
S11308709401432DBE01C3010E94400344C086334A
S113088061F40F2EF1E2EF2EF02D82019401432D3D
S1130890BE01C3010E94400336C0873361F40F2EAA
S11308A0F2E2EF2EF02D82019401432DBE01C3012B
S11308B00E94400328C0883361F40F2EF3E2EF2E28
S11308C0F02D82019401432DBE01C3010E94400317
S11308D01AC0893361F40F2EF4E2EF2EF02D820159
S11308E09401432DBE01C3010E9440030CC00F2E8E
S11308F0FFEBEF2EF02DE80E82019401432DBE0193
S1130900C3010E944003F394CA0DDB1DF601EF0DF1
S1130910F11D808181114ECFDF91CF911F910F91F5
S1130920FF90EF90DF90CF90BF90AF909F908F900B
S11309307F906F905F904F903F900895CF92DF9299
S1130940EF92FF920F931F93CF93DF936C01EB0110
S11309508A0179016417750748F4A701BE01C6012D
S11309600E94FA022196C017D107B8F3DF91CF9104
S11309701F910F91FF90EF90DF90CF900895CF9249
S1130980DF92EF92FF920F931F93CF93DF936C014B
S1130990EB018A0179016417750748F4A701B601D0
S11309A0CE010E94FA022196C017D107B8F3DF9155
S11309B0CF911F910F91FF90EF90DF90CF9008950A
S11309C0AF92BF92CF92DF92EF92FF920F931F9359
S11309D0CF93DF936C015B017A01EB01C20FD31F4C
S11309E09801AE010E949E04EC0CFD1C9801AE011E
S11309F0B501C7010E949E049801A701B601C50173
S1130A000E94BF049801A701B601CE010E94BF0451
S1130A10DF91CF911F910F91FF90EF90DF90CF90D6
S1130A20BF90AF900895EF92FF920F931F93FC0134
S1130A306217730780F0E20EF31EE616F70668F0FD
S1130A408417950760F0040F151F81E00E171F0728
S1130A5038F480E005C080E003C080E001C080E09D
S1130A601F910F91FF90EF9008953F924F925F92E4
S1130A706F927F928F929F92AF92BF92CF92DF92AA
S1130A80EF92FF920F931F93CF93DF9300D0CDB7D4
S1130A90DEB75C01512C0F2EFAE66F2EF0E07F2EAC
S1130AA0F02DCE0101964C010F2EF9E33F2EF02DCF
S1130AB00F2EF3E24F2EF02D852D90E0F5010190DD
S1130AC00020E9F73197EA19FB098E179F0708F010
S1130AD041C0F501E80FF91F80811F928F937F9227
S1130AE06F929F928F920E94250C539CC12C1124CB
S1130AF0C6948C2D880F880F880F8C0DE52CE81A6E
S1130B004E9C700111244C9C60011124B701665F56
S1130B107F4F0FEF1FEF2EE130E04EE150E0C601B2
S1130B208A5B9F4F0E94E004B7016F5E7F4F7401A0
S1130B300EEA1AE12FEF3FEF43E0C601875B9F4FB8
S1130B400E94B40353940F900F900F900F900F9046
S1130B500F90B2CF0F900F90DF91CF911F910F9113
S1130B60FF90EF90DF90CF90BF90AF909F908F90C9
S1130B707F906F905F904F903F900895EF92FF9217
S1130B800F931F930FEF1FEF28E131E04CE350E088
S1130B9064E170E08AE090E00E94E0040F2EFEE63B
S1130BA0EF2EF0E0FF2EF02D0EEA1AE12FEF3FEFCB
S1130BB043E065E570E08CE190E00E94B4030FEF40
S1130BC01FEF28E131E04CE350E064E170E080E5A0
S1130BD090E00E94E0040F2EFAE7EF2EF0E0FF2EE3
S1130BE0F02D0EEA1AE12FEF3FEF43E06EE370E0E1
S1130BF082E690E00E94B4030FEF1FEF28E131E09A
S1130C004CE350E064E170E086E990E00E94E00487
S1130C100F2EF9E8EF2EF0E0FF2EF02D0EEA1AE188
S1130C202FEF3FEF43E066E470E088EA90E00E9433
S1130C30B4031F910F91FF90EF900895EF92FF92EC
S1130C400F931F930FEF1FEF20E530E048E250E0D1
S1130C506AE070E08AE090E00E94E0040F2EF7E979
S1130C60EF2EF0E0FF2EF02D0EEA1AE12FEF3FEF0A
S1130C7043E064E170E082E190E00E94B4031F91DC
S1130C800F91FF90EF9008958EEA9AE10E94D402AA
S1130C90089580E0A3E6B0E090E2FD010190002019
S1130CA0E9F73197E356F040282F30E02E173F073D
S1130CB030F4F901ED59FF4F90838F5FEECF10921E
S1130CC0BD01089590916200992361F0E1E9F1E09A
S1130CD080E02FEF3FEF3283218313828F5F3B96B7
S1130CE08913F9CF85E080936100809360000895B3
S1130CF0CF92DF92EF92FF920F931F93CF93DF93E4
S1130D00B09928C06A018B01EC010E948902F801A4
S1130D10608171810F2EF0E5EF2EF12CF02D08E2A9
S1130D2010E02AE030E04AE050E0888199810E9496
S1130D301305882379F0F6018081813019F40E942B
S1130D40490606C0823011F0843011F40E94620614
S1130D50F6011082DF91CF911F910F91FF90EF90D8
S1130D60DF90CF9008958F929F92BF92CF92DF929F
S1130D70EF92FF920F931F93CF93DF93CDB7DEB71C
S1130D802B970FB6F894DEBF0FBECDBF0091620063
S1130D90802E912C740181E0E81AF1081E141F04BE
S1130DA00CF05CC080E090E0D12CB12CC12C3BE075
S1130DB0B401681B790B61507109161617060CF003
S1130DC046C08B2D9C2D20E0AC014F5F5F4F389FB8
S1130DD0D001399FB00D1124AF56BE4F349FF0019E
S1130DE0359FF00D1124EF56FE4FAC91E081AE1704
S1130DF038F5389FF001399FF00D1124CF018F563B
S1130E009E4F1BE0FC01DE01119601900D921A9594
S1130E10E1F7349FF001359FF00D1124AF014F56D7
S1130E205E4F1BE0FA01DC0101900D921A95E1F787
S1130E308BE0FE013196DA0101900D928A95E1F77B
S1130E402F5F822F90E0861797070CF4BDCFD394C1
S1130E508D2D90E08E159F050CF4AACF2B960FB61E
S1130E60F894DEBF0FBECDBFDF91CF911F910F91DC
S1130E70FF90EF90DF90CF90BF909F908F90089558
S1130E808F929F92AF92BF92CF92DF92EF92FF9296
S1130E900F931F93CF93DF9300D0CDB7DEB7A82E67
S1130EA0B92E862E0E94B3060F2EFDE9EF2EF0E038
S1130EB0FF2EF02D0EEA1AE12FEF3FEF43E064E638
S1130EC070E089E190E00E94B4030F2EF3EAEF2E64
S1130ED0F0E0FF2EF02D2FEF3FEF43E068EC70E0E1
S1130EE089E190E00E94B4031A82882071F1CA2C2F
S1130EF0DB2C0F2EF0E5AF2EB12CF02D912CF6014A
S1130F008081805D89837601F4E0EF0EF11C0EEAA6
S1130F101AE12FEF3FEF43E064E670E0C5010E9461
S1130F20B403CE0101967C012FEF3FEF43E06AEF5B
S1130F3070E0C5010E94B40393949BE0C90ED11CD8
S1130F40E8E2AE0EB11C8910DACF0F900F90DF915A
S1130F50CF911F910F91FF90EF90DF90CF90BF90B2
S1130F60AF909F908F9008952F923F924F925F92EF
S1130F706F927F928F929F92AF92BF92CF92DF92A5
S1130F80EF92FF920F931F93CF93DF93662309F49D
S1130F905AC0262EC82ED92E512C80E00F2EF2E8EE
S1130FA04F2EF02D0F2EFFE03F2EF02D06C081E0D6
S1130FB0851510F080E001C082E3760194E0E90E2B
S1130FC0F11CE70109900020E9F72197CE19DF0908
S1130FD050FA662460F8712C469C4001479C900CA2
S1130FE01124A82EB12CF60101811281B4016C5E8A
S1130FF07F4F28E730E048E250E0C5018A5B9F4F0D
S11310000E94E004F601218132813C9EC0013D9E94
S1131010900D112468E770E0681B790B769567954D
S113102077276C5E7F4F680D791D0EEA1AE143E065
S1131030C501825B9F4F0E94B4035394FBE0CF0E23
S1131040D11C2510B4CFDF91CF911F910F91FF9048
S1131050EF90DF90CF90BF90AF909F908F907F9054
S11310606F905F904F903F902F900895EF92FF9272
S11310700F931F930FEF1FEF2CE330E048E250E093
S11310806AEF70E08EEB90E00E94E0040F2EFBEA22
S1131090EF2EF0E0FF2EF02D0EEA1AE12FEF3FEFD6
S11310A043E069E071E086EC90E00E94B4031F9194
S11310B00F91FF90EF900895EF92FF920F931F937B
S11310C00FEF1FEF2CE330E048E250E064EB70E0F8
S11310D08EEB90E00E94E0040F2EFFEAEF2EF0E08A
S11310E0FF2EF02D0EEA1AE12FEF3FEF43E06BEBFA
S11310F070E086EC90E00E94B4031F910F91FF9082
S1131100EF900895EF92FF920F931F930FEF1FEF4D
S11311102AE530E048E250E06CED70E08EEB90E0C0
S11311200E94E0040F2EF4EBEF2EF0E0FF2EF02DE2
S11311300EEA1AE12FEF3FEF43E063EE70E086EC36
S113114090E00E94B4031F910F91FF90EF900895D7
S1131150CF93DF93CDB7DEB7C555D1090FB6F89459
S1131160DEBF0FBECDBF0E94BE000E9449008EEAC2
S11311709AE10E94D4021D8286E1E0ECF0E0DE01F7
S1131180169601900D928A95E1F7FE01B0969E01A4
S1131190295D3F4F81E48193E217F307E1F71EA233
S11311A0FE01BB969E012E5C3F4F82E48193E217C1
S11311B0F307E1F719AAFE01F6969E01235C3F4F5F
S11311C083E48193E217F307E1F71CAEEDE3F0E06B
S11311D0EC0FFD1F34968DE390E08C0F9D1F0B9652
S11311E024E42193E817F907E1F728961FAE28971E
S11311F01C8E8FEF9FEF9E8F8D8F1F8E2BE0FE0135
S11312007C96A1E9B1E001900D922A95E1F722E0E4
S11312102FA399A788A721E02AA72BE0FE01B79660
S1131220ACE9B1E001900D922A95E1F727E02AABF1
S11312309CAB8BAB1DAA2BE0FE01F296A7EAB1E0B2
S113124001900D922A95E1F724E02DAF9FAF8EAF68
S113125021961FAE21978BE0FE01FD96A2EBB1E033
S113126001900D928A95E1F70F2EF2E82F2EF02DC2
S113127066961FAE6697CE01069665969FAF8EAFB3
S113128065978D81811165C080919001882321F03B
S11312900E944406109290010E94BE05B099F1CFBD
S11312A0BE016D5F7F4FCE0101960E9489026B8162
S11312B07C810F2EF8E1EF2EFF24F394F02D0CE344
S11312C010E024E130E04AE050E089819A810E94F4
S11312D01305882331F00E94440681E08093900135
S11312E08D836B817C810F2EF8E1EF2EFF24F39424
S11312F0F02D0CE310E024E130E040E550E089817A
S11313009A810E941305882339F00E94440681E0E3
S11313108093900182E08D836B817C810F2EF8E1B4
S1131320EF2EFF24F394F02D0CE310E024E130E0E1
S113133046E950E089819A810E941305882309F4C3
S1131340A0CF0E94440681E08093900183E08D83C6
S113135098CF813009F042C10E941E06CE01069644
S11313600E943505AE014B5F5F4FBE016D5F7F4F3D
S1131370CE0101960E9478060E945C080E943608FD
S1131380B0997FCFBE016D5F7F4FCE0101960E9461
S113139089026596EEADFFAD659701900020E9F7EF
S11313A031975F0165968EAD9FAD6597A81AB90A0E
S11313B06B807C8089809A80512C0F2EF9E33F2E1C
S11313C0F02D0F2EF3E24F2EF02D852D90E08A158F
S11313D09B0508F050C0539C412D11244695842F41
S11313E0880F880F880F840F252D281B429E90019B
S11313F01124265F3F4F449EA00111244A5B5F4F96
S11314000F2EFEE1EF2EF12CF02D0EE110E0B301D2
S1131410C4010E941305882361F1B090BD0196E0D8
S1131420B91609F4F1C10E9444068091BD01E82F68
S1131430F0E0ED59FF4FA6E0B0E0AC0FBD1FA50DE5
S1131440B11D9C91908311828F5F8093BD010F2EFB
S1131450F3E6EF2EF0E0FF2EF02D0EEA1AE12FEF67
S11314603FEF43E06AE070E088EC90E00E94B40350
S113147002C05394AACF6B817C810F2EFCE3EF2E24
S1131480F12CF02D08E210E024EB30E04EEB50E0BC
S113149089819A810E9413058823E9F1B090BD01E6
S11314A0E1E0EB15E0F4BA94B092BD01EB2DF0E06D
S11314B0ED59FF4F10820E9444060F2EF3E6EF2EE3
S11314C0F0E0FF2EF02D0EEA1AE12FEF3FEF43E09C
S11314D06AE070E088EC90E00E94B4031CC0F1E084
S11314E0BF1219C01092BD0180E2E3E6F0E08083F0
S11314F00E9444060F2EF3E6EF2EF0E0FF2EF02DAF
S11315000EEA1AE12FEF3FEF43E06AE070E088EC67
S113151090E00E94B4036B817C810F2EFCE3EF2EDC
S1131520F12CF02D08E210E02AEF30E04EEB50E011
S113153089819A810E941305882309F4A2CE3091EF
S11315406200343009F49DCE4091BD01442309F476
S113155098CE20E0E3E6F0E001900020E9F731972F
S1131560E356F040822F90E08E179F0768F4E8E47A
S1131570F0E0EC0FFD1FE80FF91FDC01AD59BF4F80
S11315808C9184832F5FE6CFE8E4F0E0EC0FFD1F3D
S1131590E40FF11D148229961FAE29978FEF9FEF58
S11315A02B969FAF8EAF2B972C961FAE2C97FBE0FC
S11315B03F9FD0011124AF56BE4F8BE0FE01E85B84
S11315C0FF4F01900D928A95E1F73F5F30936200DF
S11315D00E9449060E9444061D8253CE823009F0BF
S11315E0DDC00E941E06AE014B5F5F4FBE016D5F02
S11315F07F4FCE0101960E9478066091620081E9D6
S113160091E00E94B4070E948208B0993ACEBE01CC
S11316106D5F7F4FCE0101960E9489026090620047
S1131620662009F498C08B809C80A980BA80712CB4
S113163040E008C021E0271520F066964FAD66977C
S113164001C042E370FACC24C0F8D12C2C9C900148
S11316502D9C300D11242C5E3F4F50E04A5B5F4FB0
S11316600F2EF8E7EF2EF12CF02D08E210E0B40174
S1131670C5010E941305882309F46AC0272D30E0B0
S11316804BE0749EF0011124EF56FE4F818192814C
S11316908F3FEFEF9E0751F580916100853089F40B
S11316A08BE0829FF001839FF00D1124EF56FE4FD3
S11316B089E693ED9283818381E083837092610054
S11316C03DC0809160008530C9F58BE0829FF001B8
S11316D0839FF00D1124EF56FE4F8BE297EC92831B
S11316E0818381E083837092600028C08936E3EDB2
S11316F09E0789F48BE0829FF001839FF00D1124F3
S1131700EF56FE4F8FEF9FEF9283818385E08093A6
S11317106100138213C08B32974C81F48BE0829F5B
S1131720F001839FF00D1124EF56FE4F8FEF9FEFD2
S11317309283818385E08093600013822FEF4FE3CF
S113174082E0215040408040E1F700C0000003C027
S1131750739476106FCF6B817C810F2EFAE5EF2E98
S1131760F12CF02D08E210E02CED30E04EEB50E0CF
S113177089819A810E941305882309F482CD80917E
S11317806100853009F47DCD80916000853009F4D5
S113179078CD0E94440684E08D8373CD833099F420
S11317A00E941E06AE014B5F5F4FBE016D5F7F4F0F
S11317B0CE0101960E9478066091620081E991E071
S11317C00E9440075ECD843009F05BCD0E941E0666
S11317D0AE014B5F5F4FBE016D5F7F4FCE0101963F
S11317E00E9478060F2EFBEBEF2EF0E0FF2EF02D7B
S11317F00EEA1AE12FEF3FEF43E068EC70E088EC6B
S113180090E00E94B4033DCD0F2EFCE3EF2EF12CAB
S1131810F02D08E210E024EB30E04EEB50E0B30191
S1131820C4010E94130581113ECE75CEA29FB00162
S1131830B39FC001A39F700D811D1124911DB29F00
S1131840700D811D1124911D0895AEE0B0E0EBE20E
S1131850FCE00C94E60E0D891E8986E08C831A83C5
S113186009838FEF9FE79E838D83AE01475E5F4FB1
S11318706F89788DCE0101960E94470CEF81F8851F
S1131880E00FF11F10822E96E4E00C94020FABE0FF
S1131890B0E0EDE4FCE00C94D80E6C017B018A010D
S11318A0FC0117821682838181FFCCC1CE0101968F
S11318B03C01F6019381F70193FD859193FF81919A
S11318C07F01882309F4BAC1853239F493FD8591E7
S11318D093FF81917F01853229F4B60190E00E9443
S11318E03E0EE7CF912C212C312CFFE1F315D8F0DB
S11318F08B3279F038F4803279F08332A1F4232DDD
S113190020611DC08D3261F0803369F4232D216084
S113191016C0832D8260382EE32DE4603E2E2AC04B
S1131920F32DF8601DC037FC2DC020ED280F2A30A0
S113193040F08E32B9F436FC81C1232D2064322E5E
S113194019C036FE06C08AE0989E200D1124922EFE
S113195011C0EAE02E9E200D1124222EF32DF062F8
S11319603F2E08C08C3621F4832D8068382E02C0A7
S1131970883641F4F70193FD859193FF81917F01AE
S11319808111B3CF982F9F7D9554933028F40C5F29
S11319901F4F9FE399830DC0833631F0833771F075
S11319A0833509F059C021C0F801808189830E5F15
S11319B01F4F88248394912C530113C02801F2E013
S11319C04F0E511CF801A080B18036FE03C0692D72
S11319D070E002C06FEF7FEFC5010E94330E4C012F
S11319E08201F32DFF773F2E16C0280122E0420E1C
S11319F0511CF801A080B18036FE03C0692D70E04F
S1131A0002C06FEF7FEFC5010E94280E4C01F32D39
S1131A10F0683F2E820133FC1BC0822D90E08816B3
S1131A209906B0F4B60180E290E00E943E0E2A943A
S1131A30F4CFF50137FC859137FE81915F01B60142
S1131A4090E00E943E0E21102A9421E0821A91080F
S1131A508114910471F7E8C0843611F0893641F598
S1131A60F80137FE07C060817181828193810C5F28
S1131A701F4F08C060817181072E000C880B990BE1
S1131A800E5F1F4FF32DFF763F2E97FF09C09095F1
S1131A908095709561957F4F8F4F9F4FF0683F2ED3
S1131AA02AE030E0A3010E947A0E882E861845C0F1
S1131AB0853731F4232D2F7EB22E2AE030E025C065
S1131AC0932D997FB92E8F36C1F018F4883579F0AB
S1131AD0B5C0803719F0883721F0B0C0E92FE06134
S1131AE0BE2EB4FE0DC0FB2DF460BF2E09C034FE23
S1131AF00AC0292F2660B22E06C028E030E005C0B7
S1131B0020E130E002C020E132E0F801B7FE07C076
S1131B1060817181828193810C5F1F4F06C0608157
S1131B20718180E090E00E5F1F4FA3010E947A0E46
S1131B30882E8618FB2DFF773F2E36FE0DC0232DF1
S1131B402E7FA22E891458F434FE0BC032FC09C037
S1131B50832D8E7EA82E05C0B82CA32C03C0B82CD0
S1131B6001C0B92CA4FE0FC0FE01E80DF11D808157
S1131B70803321F49A2D997EA92E09C0A2FE06C0B5
S1131B80B394B39404C08A2D867809F0B394A3FC6B
S1131B9011C0A0FE06C0B21488F4280C922C9B1825
S1131BA00EC0B21460F4B60180E290E00E943E0ED2
S1131BB0B394F7CFB21418F42B1802C0982C212C2C
S1131BC0A4FE10C0B60180E390E00E943E0EA2FE87
S1131BD017C0A1FC03C088E790E002C088E590E04C
S1131BE0B6010CC08A2D867859F0A1FE02C08BE2A2
S1131BF001C080E2A7FC8DE2B60190E00E943E0E97
S1131C00891438F4B60180E390E00E943E0E9A9461
S1131C10F7CF8A94F301E80DF11D8081B60190E0BD
S1131C200E943E0E8110F5CF222009F442CEB60167
S1131C3080E290E00E943E0E2A94F6CFF60186815F
S1131C40978102C08FEF9FEF2B96E2E10C94F40E84
S1131C50FC010590615070400110D8F78095909573
S1131C608E0F9F1F0895FC01615070400190011078
S1131C70D8F7809590958E0F9F1F08950F931F930B
S1131C80CF93DF93FB01238121FD03C08FEF9FEFEF
S1131C902CC022FF16C0468157812481358142170A
S1131CA0530744F4A081B1819D012F5F3F4F3183DD
S1131CB020838C93268137812F5F3F4F3783268380
S1131CC014C08B01EC01FB010084F185E02D099522
S1131CD0892BE1F6D80116968D919C911797019660
S1131CE017969C938E931697CE01DF91CF911F91F7
S1131CF00F910895FA01AA27283051F1203181F17A
S1131D00E8946F936E7F6E5F7F4F8F4F9F4FAF4FFF
S1131D10B1E03ED0B4E03CD0670F781F891F9A1F12
S1131D20A11D680F791F8A1F911DA11D6A0F711DC6
S1131D30811D911DA11D20D009F468943F912AE0D2
S1131D40269F11243019305D3193DEF6CF010895BA
S1131D50462F4770405D4193B3E00FD0C9F7F6CFEB
S1131D60462F4F70405D4A3318F0495D31FD4052B3
S1131D70419302D0A9F7EACFB4E0A6959795879549
S1131D8077956795BA95C9F7009761057105089528
S1131D909B01AC010A2E06945795479537952795D4
S1131DA0BA95C9F7620F731F841F951FA01D08956C
S1131DB02F923F924F925F926F927F928F929F9257
S1131DC0AF92BF92CF92DF92EF92FF920F931F9345
S1131DD0CF93DF93CDB7DEB7CA1BDB0B0FB6F894F6
S1131DE0DEBF0FBECDBF09942A88398848885F8436
S1131DF06E847D848C849B84AA84B984C884DF80A7
S1131E00EE80FD800C811B81AA81B981CE0FD11D8A
S1131E100FB6F894DEBF0FBECDBFED010895F89460
S1051E20FFCFEE
S1131E2205050420000000000000256300004E4563
S1131E325720504C41594552000043484F4F534597
S1131E4220504C4159455200004C454144455242B0
S1131E524F4152445300004241434B00004E414D16
S1131E62450000504F494E545300004F4B0000446C
S1131E72454C000053544152540000424F4B000061
S1131E824142434445464748494A4B4C4D4E4F50C4
S1131E9252535455565A7E1111117E7F494949367F
S1131EA23E414141227F4141221C7F494949417FB0
S1131EB2090909013E4149497A7F0808087F00411E
S1131EC27F41002040413F017F081422417F40406E
S1131ED240407F020C027F7F0408107F3E41414153
S1131EE23E7F090909063E4151215E7F09192946AF
S1131EF2464949493101017F01013F4040403F1FAA
S1131F022040201F3F4038403F63140814630708F1
S1131F12700807615149454300000000003E5149E1
S1131F22453E00427F400042615149462141454BB2
S1131F32311814127F1027454545393C4A49493026
S1131F4203710905033649494936064949291E00E0
S9030000FC
