S01B00007572735F7A617672736E695F70726F6A656B742E73726563E5
S11300000C942A000C9447000C9447000C9447006D
S11300100C9447000C9447000C9447000C94470040
S11300200C9447000C9447000C9447000C94470030
S11300300C9447000C9447000C9447000C94470020
S11300400C9447000C9447000C9447000C94470010
S11300500C94470011241FBECFE5D8E0DEBFCDBF0E
S113006011E0A0E6B0E0ECEFF7E202C005900D92DB
S1130070AC3BB107D9F721E0ACEBB1E001C01D9274
S1130080A83CB207E1F70E944F0C0C94FC130C94AB
S1130090000088B3806B88BB0895C79897E0482F09
S11300A050E09A01092E02C0359527950A94E2F78B
S11300B020FF02C0C59A01C0C598C798C79A91503D
S11300C080F708952CE080E090E0880F991FC79A8C
S11300D0C79836B336FB442740F950E0840F951F88
S11300E0215099F70895662311F0A89A01C0A898A1
S11300F0AF989BBB82BBA99AA998AF9A0895CF9356
S1130100DF93EB0160E00E94730061E0CE010E9486
S11301107300DF91CF910895EF92FF920F931F9395
S1130120CF93DF938C01EB01790160E070E0742FD1
S1130130680F791F84E490E00E947F00BE0185E48B
S113014090E00E947F00B70186E490E00E947F0067
S1130150B8018EE490E00E947F00BE018FE490E03D
S11301600E947F0060E082E290E00E947300DF91D1
S1130170CF911F910F91FF90EF9008958FEF8ABB5D
S113018081BB84B3836C84BB8EEB87BB87B38660EF
S113019087BB88B3866088BB8FEF93E20197F1F742
S11301A000C00000C1988FEF97E40197F1F700C0F9
S11301B00000C19AAF9AAE9AA9988FEF9FE8019771
S11301C0F1F700C0000061E070E080E090E00E9480
S11301D07F0083E397E00197F1F764EA78EA83E02C
S11301E090E00E947F0083E397E00197F1F760E0DD
S11301F070E08CE090E00E947F0083E397E0019739
S1130200F1F76CE078E08DE090E00E947F0083E3FA
S113021097E00197F1F760E07BE28EE090E00E94C6
S11302207F0083E397E00197F1F760EB70E08EE1E4
S113023090E00E947F0083E397E00197F1F76FE37A
S11302407BE281E090E00E947F0083E397E00197E6
S1130250F1F760E076E082E090E00E947F0083E3C3
S113026097E00197F1F760E070E080E190E00E9490
S11302707F0083E397E00197F1F760E770E681E19F
S113028090E00E947F0083E397E00197F1F760E03C
S113029070E085E090E00E947F0083E397E001979F
S11302A0F1F760E070E086E090E00E947F0083E375
S11302B097E00197F1F76CE17FEE86E190E00E9410
S11302C07F0083E397E00197F1F763E070E087E153
S11302D090E00E947F0083E397E00197F1F763E3E6
S11302E072E087E090E00E947F0083E397E001974B
S11302F0F1F760E070E08BE090E00E947F0083E320
S113030097E00197F1F760E070E08FE090E00E94E1
S11303107F0083E397E00197F1F760E070E081E408
S113032090E00E947F0083E397E00197F1F760E09B
S113033070E082E490E00E947F0083E397E00197FD
S1130340F1F760E070E088E490E00E947F0083E3CE
S113035097E00197F1F76FE371E089E490E00E9480
S11303607F0083E397E00197F1F760E070E08AE4AF
S113037090E00E947F0083E397E00197F1F760E04B
S113038070E08BE490E00E947F0083E397E00197A4
S1130390F1F760E07FEE84E490E00E947F0083E365
S11303A097E00197F1F760E070E085E490E00E9447
S11303B07F0083E397E00197F1F76FE371E086E450
S11303C090E00E947F0083E397E00197F1F767E0F4
S11303D077E080E390E00E947F0083E397E0019759
S11303E0F1F764E072E081E390E00E947F0083E330
S11303F097E00197F1F764E072E082E390E00E94F5
S11304007F0083E397E00197F1F762E075E083E30F
S113041090E00E947F0083E397E00197F1F767E0A3
S113042075E084E390E00E947F0083E397E0019706
S1130430F1F764E072E085E390E00E947F0083E3DB
S113044097E00197F1F764E072E086E390E00E94A0
S11304507F0083E397E00197F1F762E075E087E3BB
S113046090E00E947F0083E397E00197F1F762E058
S113047073E08AE390E00E947F0083E397E00197B2
S1130480F1F762E073E08BE390E00E947F0083E386
S113049097E00197F1F760E070E083E290E00E945A
S11304A07F0083E397E00197F1F760E070E084E276
S11304B090E00E947F0083E397E00197F1F760E00A
S11304C070E08FE490E00E947F0060E070E08EE4D2
S11304D090E00E947F0060E082E290E00E9473005E
S11304E00895CF93DF93EB01BC018EE490E00E946A
S11304F07F0060E471E06C1B7D0B8FE490E00E9450
S11305007F0060E082E290E00E947300DF91CF916F
S113051008950F931F93CF93DF93EC018B0183E333
S113052097E00197F1F7C49880E90E944D00E3E356
S1130530F7E03197F1F7C79A0000000000000000CF
S1130540C79800000000000000000E9462009C01A7
S113055020553109ABEABAEA0E94031196958795B2
S113056096958795F8019183808380ED0E944D00D4
S1130570C79A0000000000000000C79800000000B7
S1130580000000000E9462008055910996958795AD
S1130590969587959695879599838883C49ADF91D4
S11305A0CF911F910F910895EF92FF920F931F9394
S11305B0CF938C012FE331E04FEE50E060E070E028
S11305C080E090E00E948C006894EE24E6F8FF241A
S11305D0F394C0EF61E0C8010E947300C150D1F7E9
S11305E081E0E81AF108A9F7CF911F910F91FF90CC
S11305F0EF900895CF93DF93EA01AF980E947102C0
S113060061E0CE010E947300AF9ADF91CF9108950B
S11306108F929F92AF92BF92CF92DF92EF92FF920E
S11306200F931F93CF93DF932223E9F0A22E6A0145
S11306304B01082F192FB12C8FEF820F7B019FEFF5
S1130640E91AF90AE80EF11CE401A601BE01C80189
S11306500E94FA022196CE15DF05B9F7B3940F5F15
S11306601F4FAB10F1CFDF91CF911F910F91FF90EE
S1130670EF90DF90CF90BF90AF909F908F900895B0
S11306802F923F924F925F926F927F928F929F929E
S1130690AF92BF92CF92DF92EF92FF920F931F938C
S11306A0CF93DF9300D000D0CDB7DEB789839A8390
S11306B06B01542E39011801F12C4701880C991C47
S11306C0880C991CC4018E0D9F1D9C0122503F4F24
S11306D049010F2EF5E04F2EF02DA42EB12CF4017C
S11306E0E1904F0109811A811C821B82F12CC70100
S11306F00B8002C0959587950A94E2F780FF07C0A6
S1130700252DA301B601C8010E94080306C0252DAA
S1130710A101B601C8010E9408032B813C812F5F0F
S11307203F4F3C832B830A0D1B1D28303105F9F6FE
S1130730CA0CDB1C4A944110D2CF0F900F900F903B
S11307400F90DF91CF911F910F91FF90EF90DF9069
S1130750CF90BF90AF909F908F907F906F905F905D
S11307604F903F902F9008953F924F925F926F92D7
S11307707F928F929F92AF92BF92CF92DF92EF922D
S1130780FF920F931F93CF93DF93EB01342E490114
S113079028016701A42EB12C9501220F331F220FCB
S11307A0331FA20EB31E2FEFA21AB20AF12C3C0182
S11307B0640E711CF601EF0DF11D8081803261F42D
S11307C00F2EFAE1EF2EF02D82019401432DBE018C
S11307D0C3010E944003A5C0803361F40F2EFBE1E6
S11307E0EF2EF02D82019401432DBE01C3010E941E
S11307F0400397C0813361F40F2EFCE1EF2EF02DFE
S113080082019401432DBE01C3010E94400389C0AB
S1130810823361F40F2EFDE1EF2EF02D820194015D
S1130820432DBE01C3010E9440037BC0833361F4A6
S11308300F2EFEE1EF2EF02D82019401432DBE0117
S1130840C3010E9440036DC0843361F40F2EFFE1A5
S1130850EF2EF02D82019401432DBE01C3010E94AD
S113086040035FC0853359F46894EE24E5F88201AF
S11308709401432DBE01C3010E94400352C086333C
S113088061F40F2EF1E2EF2EF02D82019401432D3D
S1130890BE01C3010E94400344C0873361F40F2E9C
S11308A0F2E2EF2EF02D82019401432DBE01C3012B
S11308B00E94400336C0883361F40F2EF3E2EF2E1A
S11308C0F02D82019401432DBE01C3010E94400317
S11308D028C0893361F40F2EF4E2EF2EF02D82014B
S11308E09401432DBE01C3010E9440031AC08A3300
S11308F061F40F2EF5E2EF2EF02D82019401432DC9
S1130900BE01C3010E9440030CC00F2EFFEBEF2E6B
S1130910F02DE80E82019401432DBE01C3010E9413
S11309204003F394CA0DDB1DF601EF0DF11D808128
S1130930811140CFDF91CF911F910F91FF90EF90E4
S1130940DF90CF90BF90AF909F908F907F906F90EB
S11309505F904F903F900895CF92DF92EF92FF9275
S11309600F931F93CF93DF936C01EB018A017901FD
S11309706417750748F4A701BE01C6010E94FA0274
S11309802196C017D107B8F3DF91CF911F910F9132
S1130990FF90EF90DF90CF900895CF92DF92EF9287
S11309A0FF920F931F93CF93DF936C01EB018A01A6
S11309B079016417750748F4A701B601CE010E94B6
S11309C0FA022196C017D107B8F3DF91CF911F9196
S11309D00F91FF90EF90DF90CF9008955F926F9208
S11309E07F928F929F92AF92BF92CF92DF92EF92BB
S11309F0FF920F931F93CF93DF935C01A41AB50A60
S1130A006B01C41AD50A7C01E40EF51E8A01000F9D
S1130A10111F01151105D9F04901612C712C512CBC
S1130A20E601C60DD71DA401BE01C501860D971DA3
S1130A300E94FA02A401BE01C701861997090E9407
S1130A40FA025394652C712C6016710648F3DF91F9
S1130A50CF911F910F91FF90EF90DF90CF90BF90B7
S1130A60AF909F908F907F906F905F9008952F929A
S1130A703F924F925F926F927F928F929F92AF922A
S1130A80BF92CF92DF92EF92FF920F931F93CF9377
S1130A90DF9300D000D000D0CDB7DEB76C014B019E
S1130AA05A8349833C832B8381E090E07C01E41AE0
S1130AB0F50A1A01319421943108220C331C8A015D
S1130AC0BA01680D791DA901C6010E94FA02B40198
S1130AD029813A81621B730B4B815C81C6010E94A0
S1130AE0FA024B815C81B40189819A818C0D9D1D30
S1130AF00E94FA024B815C81B401C60129813A81CA
S1130B00821B930B0E94FA02101611060CF074C09B
S1130B101E821D8266246394712CFF203CF00150D8
S1130B20110932E0230E311CE20CF31C8D819E81ED
S1130B3001969E838D8392E0690E711CE60CF71C6E
S1130B40AD80BE80AC0CBD1C4B815C819401200F38
S1130B50311F3A832983B901C5010E94FA02260193
S1130B608D819E81481A590A4B815C8169817A8101
S1130B70C2010E94FA024B815C819401201B310B5B
S1130B803A832983B901C5010E94FA024B815C8131
S1130B9069817A81C2010E94FA02AD80BE80A80CEC
S1130BA0B91C4B815C81B5012601400E511EC20166
S1130BB00E94FA024B815C81B501C601801B910B36
S1130BC09A8389830E94FA0254012D813E81A21ADC
S1130BD0B30A4B815C81B501C2010E94FA024B81C8
S1130BE05C81B50189819A810E94FA028D819E817E
S1130BF0801791070CF491CF26960FB6F894DEBFB8
S1130C000FBECDBFDF91CF911F910F91FF90EF9059
S1130C10DF90CF90BF90AF909F908F907F906F9018
S1130C205F904F903F902F900895AF92BF92CF92D4
S1130C30DF92EF92FF920F931F93CF93DF936C0198
S1130C405B017A01EB01C20FD31F9801AE010E9430
S1130C50AC04EC0CFD1C9801AE01B501C7010E9467
S1130C60AC049801A701B601C5010E94CD04980106
S1130C70A701B601CE010E94CD04DF91CF911F914F
S1130C800F91FF90EF90DF90CF90BF90AF900895B9
S1130C90EF92FF920F931F93FC016217730780F08A
S1130CA0E20EF31EE616F70668F08417950760F067
S1130CB0040F151F81E00E171F0738F480E005C0EC
S1130CC080E003C080E001C080E01F910F91FF909D
S1130CD0EF9008953F924F925F926F927F928F921E
S1130CE09F92AF92BF92CF92DF92EF92FF920F93B7
S1130CF01F93CF93DF9300D0CDB7DEB73C01512CC7
S1130D000F2EFDE68F2EF0E09F2EF02DCE010196E2
S1130D105C010F2EF9E33F2EF02D0F2EF3E24F2E40
S1130D20F02DF30181913F011F928F939F928F9237
S1130D30BF92AF920E941211539CC12C1124C694ED
S1130D408C2D880F880F880F8C0DE52CE81A4E9C8B
S1130D50700111244C9C60011124B701665F7F4F20
S1130D600FEF1FEF2EE130E04EE150E0C6018A5B49
S1130D709F4F0E941506B7016F5E7F4F75010EEA03
S1130D801AE12FEF3FEF43E0C601875B9F4F0E94BC
S1130D90B40353940F900F900F900F900F900F90F7
S1130DA0F6E15F12BECF0F900F90DF91CF911F91AC
S1130DB00F91FF90EF90DF90CF90BF90AF909F90F6
S1130DC08F907F906F905F904F903F900895EF9237
S1130DD0FF920F931F930FEF1FEF28E131E04CE3D5
S1130DE050E064E170E08AE090E00E9415060F2E66
S1130DF0F1E7EF2EF0E0FF2EF02D0EEA1AE12FEFCF
S1130E003FEF43E065E570E08CE190E00E94B403BD
S1130E100FEF1FEF28E131E04CE350E064E170E0B4
S1130E2080E590E00E9415060F2EFDE7EF2EF0E01E
S1130E30FF2EF02D0EEA1AE12FEF3FEF43E06EE3B1
S1130E4070E082E690E00E94B4030FEF1FEF28E108
S1130E5031E04CE350E064E170E086E990E00E9408
S1130E6015060F2EFCE8EF2EF0E0FF2EF02D0EEA13
S1130E701AE12FEF3FEF43E066E470E088EA90E088
S1130E800E94B4031F910F91FF90EF900895EF9289
S1130E90FF920F931F930FEF1FEF20E530E048E21E
S1130EA050E06AE070E08AE090E00E9415060F2EA0
S1130EB0FAE9EF2EF0E0FF2EF02D0EEA1AE12FEF03
S1130EC03FEF43E064E170E082E190E00E94B4030C
S1130ED01F910F91FF90EF9008958EEA9AE10E947E
S1130EE0D402089580E0A6E6B0E090E2FD0101900E
S1130EF00020E9F73197E656F040282F30E02E170E
S1130F003F0730F4F901EA59FF4F90838F5FEECF2A
S1130F101092C701089520916500222361F0E82F03
S1130F20F92F80E04FEF5FEF5283418313828F5F8D
S1130F303B968213F9CF85E080936400809363002D
S1130F40089589E0EEEBF1E0DF011D928A95E9F75F
S1130F5081E0809360001092BD011092BC0108955D
S1130F608F929F92AF92BF92CF92DF92EF92FF92B5
S1130F700F931F93CF93DF93B09932C05801490167
S1130F806A018B01EC010E948902F8016081718180
S1130F900F2EF0E5EF2EF12CF02D08E210E02AE000
S1130FA030E04AE050E0888199810E944806882315
S1130FB0B9F0F6018081813019F40E9472070EC0E5
S1130FC0823011F0843051F4C4010E948B070E94D6
S1130FD0A10781E080936100F5018083F60110820E
S1130FE0DF91CF911F910F91FF90EF90DF90CF9001
S1130FF0BF90AF909F908F900895EF92FF920F93C0
S11310001F93CF93DF93CDB7DEB72B970FB6F8942A
S1131010DEBF0FBECDBF2091650030E02150310905
S1131020121613060CF055C040E050E0F12C7BE0A2
S11310302091650030E0241B350B21503109121634
S11310401306DCF560E0769F900111248C01020FF9
S1131050131F255F3F4F280F391FD801FC91D90179
S1131060EC91FE17E8F40F2EFBE0EF2EF02DF801C3
S1131070DE01119601900D92EA94E1F70F2EFBE048
S1131080EF2EF02DF901D80101900D92EA94E1F7C9
S11310901BE0FE013196D90101900D921A95E1F7FA
S11310A06F5FE62FF0E02091650030E0241B350BE4
S11310B021503109E217F30734F2F3944F2D50E035
S11310C02091650030E021503109421753070CF498
S11310D0AFCF2B960FB6F894DEBF0FBECDBFDF9116
S11310E0CF911F910F91FF90EF9008954F925F92CF
S11310F06F927F928F929F92AF92BF92CF92DF9224
S1131100EF92FF920F931F93CF93DF9300D000D001
S11311101F92CDB7DEB7A82EB92E462E0E94FD072A
S11311200F2EF0EAEF2EF0E0FF2EF02D0EEA1AE17A
S11311302FEF3FEF43E064E670E089E190E00E9426
S1131140B4030F2EF6EAEF2EF0E0FF2EF02D2FEF72
S11311503FEF43E068EC70E089E190E00E94B40363
S1131160442009F441C0CA2CDB2C0F2EF0E5AF2E2D
S1131170B12CF02D512C0F2EFEEA6F2EF0E07F2EB5
S1131180F02DCE0101964C01F60180811F928F93C0
S11311907F926F929F928F920E9412117601F4E0D7
S11311A0EF0EF11C0EEA1AE12FEF3FEF43E064E685
S11311B070E0C5010E94B40374012FEF3FEF43E0D8
S11311C06AEF70E0C5010E94B40353948BE0C80E2B
S11311D0D11C98E2A90EB11C0F900F900F900F90A4
S11311E00F900F904510D0CF0F900F900F900F904D
S11311F00F90DF91CF911F910F91FF90EF90DF90AF
S1131200CF90BF90AF909F908F907F906F905F90A2
S11312104F9008952F923F924F925F926F927F92D8
S11312208F929F92AF92BF92CF92DF92EF92FF92F2
S11312300F931F93CF93DF93662309F45AC0262E8E
S1131240C82ED92E512C80E00F2EF2E84F2EF02D0F
S11312500F2EFFE03F2EF02D06C081E0851510F023
S113126080E001C082E3760194E0E90EF11CE7011D
S113127009900020E9F72197CE19DF0950FA662476
S113128060F8712C469C4001479C900C1124A82EB8
S1131290B12CF60101811281B4016C5E7F4F28E705
S11312A030E048E250E0C5018A5B9F4F0E9415067A
S11312B0F601218132813C9EC0013D9E900D112496
S11312C068E770E0681B790B7695679577276C5E05
S11312D07F4F680D791D0EEA1AE143E0C501825B78
S11312E09F4F0E94B4035394FBE0CF0ED11C2510F2
S11312F0B4CFDF91CF911F910F91FF90EF90DF90CA
S1131300CF90BF90AF909F908F907F906F905F90A1
S11313104F903F902F900895EF92FF920F931F9359
S11313200FEF1FEF2CE330E048E250E06AEF70E08B
S11313308EEB90E00E9415060F2EF2EBEF2EF0E0FC
S1131340FF2EF02D0EEA1AE12FEF3FEF43E069E0A4
S113135071E086EC90E00E94B4031F910F91FF901E
S1131360EF900895EF92FF920F931F930FEF1FEFEB
S11313702CE330E048E250E064EB70E08EEB90E068
S11313800E9415060F2EF6EBEF2EF0E0FF2EF02D47
S11313900EEA1AE12FEF3FEF43E06BEB70E086ECCF
S11313A090E00E94B4031F910F91FF90EF90089575
S11313B0EF92FF920F931F930FEF1FEF2AE530E098
S11313C048E250E06CED70E08EEB90E00E94150670
S11313D00F2EFBEBEF2EF0E0FF2EF02D0EEA1AE1BC
S11313E02FEF3FEF43E063EE70E086EC90E00E9465
S11313F0B4031F910F91FF90EF900895EF92FF9225
S11314000F931F93CF93DF93CDB7DEB762970FB6D9
S1131410F894DEBF0FBECDBF209163004BE0BC014A
S1131420429F600D711D11249B012C5F3F4F3F9320
S11314302F9320916400429F800D911D11240496E6
S11314409F938F9385EF90E09F938F93CE010196A6
S11314507C019F938F930E941211F7010190002049
S1131460E9F73197EE19FF09CF01880F991FEE0FA5
S1131470FF1FEE0FFF1FEE0FFF1FE80FF91F6CEDAC
S113148070E06E1B7F0B769567957727665A7F4FC2
S11314900EEA1AE12FEF3FEF42E08AE090E00E946B
S11314A0B4030FB6F894DEBF0FBECDBF62960FB67D
S11314B0F894DEBF0FBECDBFDF91CF911F910F9186
S11314C0FF90EF9008952FEF3FEF46EE50E06DE26E
S11314D070E08CEA90E00E94CD042FEF3FEF46EEDF
S11314E050E06DE270E08AEE90E00E94CD042FEFB0
S11314F03FEF47E251E06EE670E08BE690E00E9439
S1131500AC042FEF3FEF47E251E06EE670E089EA6A
S113151090E00E94AC040895DF92EF92FF920F9343
S11315201F93CF93DF93EC010F2EF2ECEF2EF0E03C
S1131530FF2EF02D0EEA1AE12FEF3FEF43E06AE0B1
S113154070E08AE590E00E94B403809160008130ED
S113155059F5809163000F2EFBE0DF2EF02D7E0104
S1131560D89EE00CF11C112484E0E80EF11C2EEA54
S11315703AE142E06AE070E088E790E00E94B40358
S113158080916400D89EC00DD11D11247E0184E099
S1131590E80EF11C29813A8142E06AE070E088E7B4
S11315A090E00E94B4032CC0809164000F2EFBE0F5
S11315B0DF2EF02D7E01D89EE00CF11C112484E076
S11315C0E80EF11C0EEA1AE12EEA3AE142E06AE082
S11315D070E088E790E00E94B40380916300D89E95
S11315E0C00DD11D11247E0184E0E80EF11C298177
S11315F03A8142E06AE070E088E790E00E94B40338
S1131600DF91CF911F910F91FF90EF90DF9008959C
S113161090916000913069F470E0615E7F4F90E0DA
S113162029E633ED49E150E04F960E94EE0482E052
S1131630089570E0615E7F4F90E02BE237EC49E162
S113164050E04F960E94370581E00895AF92BF9213
S1131650DF92EF92FF920F931F93CF93DF935C017E
S1131660EEEBF1E021EC31E0DF018081882351F0E1
S11316709181891307C0D2808D1104C081E08093C9
S1131680BD01E5C08D91882371F012969C9112974B
S1131690891309C01596DC9015978D1104C081E05B
S11316A08093BD01D4C03396A217B307F1F680919D
S11316B0C201882309F4E3C0D12C9091BE01981390
S11316C004C02091C601921741F09091C001981373
S11316D009C02091C401921305C091E09093BD010B
S11316E0D82E05C08091BD01882309F479C00F2E3E
S11316F0F9ECEF2EF0E0FF2EF02D0EEA1AE12FEFB9
S11317003FEF43E06AE070E08CE890E00E94B403AD
S113171081E0D81223C0809164000F2EFBE0DF2EFD
S1131720F02DF501D89EE00DF11D11247F01C4E0D8
S1131730EC0EF11C2181328142E06AE070E08AEA19
S113174090E00E94B40380916400E501D89EC00D2E
S1131750D11D112488818F5F888324C08091630008
S11317600F2EFBE0DF2EF02DF501D89EE00DF11DCC
S113177011247F01D4E0ED0EF11C218132810EEAA7
S11317801AE142E06AE070E08AEA90E00E94B40361
S113179080916300E501D89EC00DD11D112488817C
S11317A08F5F88830FEF1FEF29E630E04EE150E0B2
S11317B06AE070E088EC90E00E9415060F2EFFECC2
S11317C0EF2EF0E0FF2EF02D0EEA1AE12FEF3FEF9F
S11317D042E06EE070E08FEC90E00E94B40355C0EC
S11317E08091BC01893009F050C081E08093BD0133
S11317F00F2EFAEDEF2EF0E0FF2EF02D0EEA1AE197
S11318002FEF3FEF43E06AE070E086E990E00E944A
S1131810B4030FEF1FEF29E630E04EE150E06AE039
S113182070E088EC90E00E9415060F2EFFECEF2E7E
S1131830F0E0FF2EF02D0EEA1AE12FEF3FEF42E029
S11318406EE070E08FEC90E00E94B4031EC08091C3
S1131850C201882309F44BCF30CF0F2EF9ECEF2EC1
S1131860F0E0FF2EF02D0EEA1AE12FEF3FEF43E0F8
S11318706AE070E08CE890E00E94B4036FCF80913E
S1131880BD01882309F4ACCFE8CFDF91CF911F913C
S11318900F91FF90EF90DF90BF90AF900895CF939A
S11318A0DF93CDB7DEB7CC58D1090FB6F894DEBFBD
S11318B00FBECDBF0E94BE000E9449008EEA9AE18D
S11318C00E94D4021D8286E1EFEDF0E0DE0116965F
S11318D001900D928A95E1F781E08C8FE9E4F0E0C4
S11318E0EC0FFD1F349689E490E08C0F9D1F0B963E
S11318F021E421938E179F07E1F764961FAE649746
S1131900E4E5F0E0EC0FFD1F349684E590E08C0FE5
S11319109D1F0B9622E421938E179F07E1F76F9684
S11319201FAE6F97EFE5F0E0EC0FFD1F34968FE5E7
S113193090E08C0F9D1F0B9623E421938E179F0735
S1131940E1F7AA961FAEAA97EAE6F0E0EC0FFD1FB6
S113195034968AE690E08C0F9D1F0B9624E4219325
S1131960E817F907E1F7E5961FAEE5972A961FAE4B
S11319702A978FEF9FEF2C969FAF8EAF2C972D96C3
S11319801FAE2D972BE0FE01E75BFF4FDE015D9656
S113199001900D922A95E1F722E065962FAF6597A5
S11319A067969FAF8EAF679721E068962FAF6897D1
S11319B02BE0FE01EC5AFF4FDE01989601900D9248
S11319C02A95E1F727E0A0962FAFA097A2969FAFA4
S11319D08EAFA297A3961FAEA3972BE0FE01E15A08
S11319E0FF4FDE01D39601900D922A95E1F724E092
S11319F0AB962FAFAB97AD969FAF8EAFAD97AE962C
S1131A001FAEAE978BE0FE01E659FF4FDE01DE9676
S1131A1001900D928A95E1F7332433948D818111DD
S1131A2065C080916200882331F00E946D070E9496
S1131A30E70610926200309261003C8EB099EECFBE
S1131A40BE016D5F7F4FCE0101960E9489026B81BA
S1131A507C810F2EF8E1EF2EFF24F394F02D0CE39C
S1131A6010E024E130E04AE050E089819A810E944C
S1131A704806882329F00E946D07309262003D8257
S1131A806B817C810F2EF8E1EF2EFF24F394F02D6F
S1131A900CE310E024E130E040E550E089819A81D4
S1131AA00E944806882331F00E946D07309262003C
S1131AB082E08D836B817C810F2EF8E1EF2EFF2471
S1131AC0F394F02D0CE310E024E130E046E950E01B
S1131AD089819A810E944806882309F49FCF0E9435
S1131AE06D073092620083E08D8398CF813009F0D6
S1131AF039C10E944707CE0106960E946A068E01EC
S1131B00045E1F4F9E01235E3F4FAE014B5F5F4F4C
S1131B10BE016D5F7F4FCE0101960E94B0070E9407
S1131B20B2090E948C09B09979CFBE016D5F7F4FD5
S1131B30CE0101960E948902AB80BC80C980DA8004
S1131B40912C0F2EF9E37F2EF02D0F2EF3E28F2E22
S1131B50F02D979C412D11244695842F880F880FD2
S1131B60880F840F292D281B829E90011124265F43
S1131B703F4F849EA00111244A5B5F4F0F2EFEE16C
S1131B80EF2EF12CF02D0EE110E0B501C6010E94FC
S1131B904806882361F18090C70126E0821609F483
S1131BA01FC30E946D078091C701E82FF0E0EA5936
S1131BB0FF4FA6E0B0E0AC0FBD1FA90DB11D9C9175
S1131BC0908311828F5F8093C7010F2EF6E6EF2E6C
S1131BD0F0E0FF2EF02D0EEA1AE12FEF3FEF43E085
S1131BE06AE070E088EC90E00E94B40304C093942F
S1131BF046E19412AECF6B817C810F2EFCE3EF2E75
S1131C00F12CF02D08E210E024EB30E04EEB50E034
S1131C1089819A810E9448068823E9F18090C7014E
S1131C2081E08815E0F48A948092C701E82DF0E001
S1131C30EA59FF4F10820E946D070F2EF6E6EF2E31
S1131C40F0E0FF2EF02D0EEA1AE12FEF3FEF43E014
S1131C506AE070E088EC90E00E94B4031CC091E05C
S1131C60891219C01092C70180E2E6E6F0E0808391
S1131C700E946D070F2EF6E6EF2EF0E0FF2EF02DFA
S1131C800EEA1AE12FEF3FEF43E06AE070E088ECE0
S1131C9090E00E94B4036B817C810F2EFCE3EF2E55
S1131CA0F12CF02D08E210E02AEF30E04EEB50E08A
S1131CB089819A810E944806882309F4AFCE309125
S1131CC06500343009F4AACE4091C701442309F4D5
S1131CD0A5CE20E0E6E6F0E001900020E9F7319798
S1131CE0E656F040822F90E08E179F0768F4E5E7F0
S1131CF0F0E0EC0FFD1FE80FF91FDC01AA59BF4FFC
S1131D008C9184832F5FE6CFE5E7F0E0EC0FFD1FB5
S1131D10E40FF11D1482E6961FAEE6978FEF9FEF56
S1131D20E8969FAF8EAFE897E9961FAEE997A1E0DA
S1131D30B0E0AC0FBD1FFBE03F9FA00DB11D11240F
S1131D405C968BE0FE01EB58FF4F01900D928A9553
S1131D50E1F73F5F309365000E9472070E946D07B0
S1131D601D825CCE823009F003C10E9447078E01B8
S1131D70045E1F4F9E01235E3F4FAE014B5F5F4FDA
S1131D80BE016D5F7F4FCE0101960E94B007809126
S1131D906100882351F060916500CE014D960E9448
S1131DA00A090E94D80910926100B09937CEBE0189
S1131DB06D5F7F4FCE0101960E948902809065007D
S1131DC0882009F4B1C0AB80BC80C980DA80912C32
S1131DD040E00F2EF2E87F2EF02D612C06C021E0AA
S1131DE0291510F0462D01C042E390FA442440F82E
S1131DF0512C749C9001759C300D11242C5E3F4F26
S1131E0050E04A5B5F4F0F2EF8E7EF2EF12CF02DD8
S1131E1008E210E0B501C6010E944806882309F4CF
S1131E2080C0292D30E0E1E0F0E0EC0FFD1F4BE035
S1131E30949EE00DF11D1124858D968D8F3FEFEF5B
S1131E409E0799F5809164008530A9F48BE0829F08
S1131E50F001839FF00D112481E090E08C0F9D1F11
S1131E60E80FF91F89E693ED968F858F91E0978FA0
S1131E70909264004AC080916300853009F045C0A7
S1131E808BE0829FF001839FF00D112481E090E0AC
S1131E908C0F9D1FE80FF91F8BE297EC968F858FAF
S1131EA091E0978F9092630030C08936E3ED9E07EE
S1131EB0A9F48BE0829FF001839FF00D112481E04F
S1131EC090E08C0F9D1FE80FF91F8FEF9FEF968F07
S1131ED0858F85E080936400178E17C08B32974CF2
S1131EE0A1F48BE0829FF001839FF00D112481E027
S1131EF090E08C0F9D1FE80FF91F8FEF9FEF968FD7
S1131F00858F85E080936300178E9FEFEFE1F1E00A
S1131F109150E040F040E1F700C0000030926100D1
S1131F2003C0939498105BCF6B817C810F2EFAE5EC
S1131F30EF2EF12CF02D08E210E02CED30E04EEB0A
S1131F4050E089819A810E944806882309F466CD6D
S1131F5080916400853009F461CD809163008530FF
S1131F6009F45CCD0E946D0784E08D833C8E56CDD0
S1131F708330C9F40E9447078E01045E1F4F9E01FF
S1131F80235E3F4FAE014B5F5F4FBE016D5F7F4FDE
S1131F90CE0101960E94B00760916500CE014D9676
S1131FA00E9476083BCD843009F038CD0E94470763
S1131FB08E01045E1F4F9E01235E3F4FAE014B5FB7
S1131FC05F4FBE016D5F7F4FCE0101960E94B00747
S1131FD08091BD018823F1F06B817C810F2EF9E69D
S1131FE0EF2EF12CF02D0EE110E02AE030E048EC69
S1131FF050E089819A810E944806882309F40ECD15
S11320000E94A1070E946D073C8E8091BD01811141
S113201005CD03C08C8D882379F0CE014D960E94A6
S1132020FE090E94630ACE014D960E94260BCE0142
S11320304D960E948C0A1C8EB099F0CCBE016D5F47
S11320407F4FCE0101960E9489028EEB91E0CC571E
S1132050DF4F99838883C458D0400EE610E0612C8A
S1132060712CC557DF4F59824882CB58D040C65790
S1132070DF4F3882CA58D0401801C857DF4F7982E1
S11320806882C858D040EB81FC81C058DF4FF98387
S1132090E883C058D04089819A81CE57DF4F998315
S11320A08883C258D040CC57DF4F88809980C45869
S11320B0D0400F2EFDE2AF2EB12CF02DC12CD12C2F
S11320C0CA57DF4F79826882C658D04026010F2E46
S11320D0FEE3EF2EF12CF02D0EE310E09101A501AB
S11320E0C058DF4F68817981C058D040CE57DF4F48
S11320F088819981C258D0400E9448068823C1F142
S1132100F4018081811134C08201CA57DF4F688095
S11321107980C658D040C857DF4FE881F981C85844
S1132120D040EE0FFF1FC857DF4F88819981C858F0
S1132130D040E80FF91FE254FE4FE00FF11F8091E9
S1132140600080838091BC018F5F8093BC019EE31B
S1132150C99E802D1124622D835D0E94080B8093FB
S11321606000C657DF4FE881CA58D040EC8F14C0D6
S1132170FFEFCF1ADF0A2EE3A20EB11C4FEF841A31
S1132180940A83E0C816D10409F0A0CFCA57DF4FE0
S113219068807980C658D0409FEF691A790ACC5775
S11321A0DF4FE881F981C458D0403396CC57DF4FD4
S11321B0F983E883C458D040FEE32F0E311C23E09A
S11321C06216710409F059CFC557DF4F4880598012
S11321D0CB58D040C657DF4F3880CA58D0401ECCA9
S11321E00F2EFCE3EF2EF12CF02D08E210E024EB8F
S11321F030E04EEB50E0B501C6010E94480688234A
S113220009F449CD10CDA29FB001B39FC001A39F93
S1132210700D811D1124911DB29F700D811D11241B
S1132220911D0895AEE0B0E0E8E1F1E10C94D31320
S11322300D891E8986E08C831A8309838FEF9FE7BB
S11322409E838D83AE01475E5F4F6F89788DCE018B
S113225001960E943411EF81F885E00FF11F10827E
S11322602E96E4E00C94EF13ABE0B0E0EAE3F1E186
S11322700C94C5136C017B018A01FC011782168240
S1132280838181FFCCC1CE0101963C01F60193818B
S1132290F70193FD859193FF81917F01882309F4D0
S11322A0BAC1853239F493FD859193FF81917F0101
S11322B0853229F4B60190E00E942B13E7CF912CCC
S11322C0212C312CFFE1F315D8F08B3279F038F45E
S11322D0803279F08332A1F4232D20611DC08D3228
S11322E061F0803369F4232D216016C0832D826050
S11322F0382EE32DE4603E2E2AC0F32DF8601DC075
S113230037FC2DC020ED280F2A3040F08E32B9F46E
S113231036FC81C1232D2064322E19C036FE06C03E
S11323208AE0989E200D1124922E11C0EAE02E9E80
S1132330200D1124222EF32DF0623F2E08C08C367E
S113234021F4832D8068382E02C0883641F4F701C9
S113235093FD859193FF81917F018111B3CF982FD4
S11323609F7D9554933028F40C5F1F4F9FE399830E
S11323700DC0833631F0833771F0833509F059C0CD
S113238021C0F801808189830E5F1F4F88248394C4
S1132390912C530113C02801F2E04F0E511CF80197
S11323A0A080B18036FE03C0692D70E002C06FEFDB
S11323B07FEFC5010E9420134C018201F32DFF77AA
S11323C03F2E16C0280122E0420E511CF801A080C5
S11323D0B18036FE03C0692D70E002C06FEF7FEF5D
S11323E0C5010E9415134C01F32DF0683F2E8201A4
S11323F033FC1BC0822D90E088169906B0F4B60118
S113240080E290E00E942B132A94F4CFF50137FC6C
S1132410859137FE81915F01B60190E00E942B13F4
S113242021102A9421E0821A91088114910471F7F1
S1132430E8C0843611F0893641F5F80137FE07C04B
S113244060817181828193810C5F1F4F08C060811C
S11324507181072E000C880B990B0E5F1F4FF32D13
S1132460FF763F2E97FF09C09095809570956195F2
S11324707F4F8F4F9F4FF0683F2E2AE030E0A3013B
S11324800E946713882E861845C0853731F4232DA2
S11324902F7EB22E2AE030E025C0932D997FB92EED
S11324A08F36C1F018F4883579F0B5C0803719F04B
S11324B0883721F0B0C0E92FE061BE2EB4FE0DC014
S11324C0FB2DF460BF2E09C034FE0AC0292F2660FC
S11324D0B22E06C028E030E005C020E130E002C0A2
S11324E020E132E0F801B7FE07C06081718182818A
S11324F093810C5F1F4F06C06081718180E090E082
S11325000E5F1F4FA3010E946713882E8618FB2DB0
S1132510FF773F2E36FE0DC0232D2E7FA22E891469
S113252058F434FE0BC032FC09C0832D8E7EA82ED5
S113253005C0B82CA32C03C0B82C01C0B92CA4FE30
S11325400FC0FE01E80DF11D8081803321F49A2D26
S1132550997EA92E09C0A2FE06C0B394B39404C008
S11325608A2D867809F0B394A3FC11C0A0FE06C09E
S1132570B21488F4280C922C9B180EC0B21460F488
S1132580B60180E290E00E942B13B394F7CFB2140B
S113259018F42B1802C0982C212CA4FE10C0B601EC
S11325A080E390E00E942B13A2FE17C0A1FC03C09D
S11325B088E790E002C088E590E0B6010CC08A2D5F
S11325C0867859F0A1FE02C08BE201C080E2A7FC2C
S11325D08DE2B60190E00E942B13891438F4B60101
S11325E080E390E00E942B139A94F7CF8A94F3012E
S11325F0E80DF11D8081B60190E00E942B1381103B
S1132600F5CF222009F442CEB60180E290E00E9488
S11326102B132A94F6CFF6018681978102C08FEF9F
S11326209FEF2B96E2E10C94E113FC0105906150BD
S113263070400110D8F7809590958E0F9F1F0895D4
S1132640FC016150704001900110D8F7809590957D
S11326508E0F9F1F08950F931F93CF93DF93FB015A
S1132660238121FD03C08FEF9FEF2CC022FF16C0F2
S113267046815781248135814217530744F4A08150
S1132680B1819D012F5F3F4F318320838C9326813D
S113269037812F5F3F4F3783268314C08B01EC01B2
S11326A0FB010084F185E02D0995892BE1F6D80121
S11326B016968D919C911797019617969C938E93DD
S11326C01697CE01DF91CF911F910F910895FA01D2
S11326D0AA27283051F1203181F1E8946F936E7F5D
S11326E06E5F7F4F8F4F9F4FAF4FB1E03ED0B4E04E
S11326F03CD0670F781F891F9A1FA11D680F791F8F
S11327008A1F911DA11D6A0F711D811D911DA11D9F
S113271020D009F468943F912AE0269F11243019AF
S1132720305D3193DEF6CF010895462F4770405D4A
S11327304193B3E00FD0C9F7F6CF462F4F70405DF9
S11327404A3318F0495D31FD4052419302D0A9F754
S1132750EACFB4E0A6959795879577956795BA954E
S1132760C9F700976105710508959B01AC010A2E14
S113277006945795479537952795BA95C9F7620FEB
S1132780731F841F951FA01D08952F923F924F928F
S11327905F926F927F928F929F92AF92BF92CF92ED
S11327A0DF92EF92FF920F931F93CF93DF93CDB7F6
S11327B0DEB7CA1BDB0B0FB6F894DEBF0FBECDBF6E
S11327C009942A88398848885F846E847D848C843F
S11327D09B84AA84B984C884DF80EE80FD800C8148
S11327E01B81AA81B981CE0FD11D0FB6F894DEBF2B
S10F27F00FBECDBFED010895F894FFCF9B
S11327FC0101010505042000000000000025630010
S113280C004E455720504C41594552000043484F07
S113281C4F534520504C4159455200004C454144BE
S113282C4552424F4152445300004241434B000035
S113283C4E414D450000504F494E54530000256401
S113284C00004F4B000044454C000053544152547B
S113285C00005455524E3A0000574F4E3A00005463
S113286C525920414741494E00005449450000410A
S113287C42434445464748494A4B4C4D4E4F5052AF
S113288C535455565A2573205653202573007E11E4
S113289C11117E7F494949363E414141227F4141D4
S11328AC221C7F494949417F090909013E41494993
S11328BC7A7F0808087F00417F41002040413F0196
S11328CC7F081422417F404040407F020C027F7FEE
S11328DC0408107F3E4141413E7F090909063E41EF
S11328EC51215E7F09192946464949493101017F25
S11328FC01013F4040403F1F2040201F3F403840D3
S113290C3F63140814630708700807615149454371
S113291C00000000003E5149453E00427F40004209
S113292C615149462141454B311814127F102745FA
S113293C4545393C4A49493003710905033649492F
S10F294C4936064949291E0036360000B1
S9030000FC
