:100000000C942A000C9447000C9447000C94470071
:100010000C9447000C9447000C9447000C94470044
:100020000C9447000C9447000C9447000C94470034
:100030000C9447000C9447000C9447000C94470024
:100040000C9447000C9447000C9447000C94470014
:100050000C94470011241FBECFE5D8E0DEBFCDBF12
:1000600011E0A0E6B0E0E6ECF4E202C005900D92EB
:10007000AC3AB107D9F721E0ACEAB1E001C01D927A
:10008000A93BB207E1F70E945D0B0C9461120C943E
:10009000000088B3806B88BB0895C79897E0482F0D
:1000A00050E09A01092E02C0359527950A94E2F78F
:1000B00020FF02C0C59A01C0C598C798C79A915041
:1000C00080F708952CE080E090E0880F991FC79A90
:1000D000C79836B336FB442740F950E0840F951F8C
:1000E000215099F70895662311F0A89A01C0A898A5
:1000F000AF989BBB82BBA99AA998AF9A0895CF935A
:10010000DF93EB0160E00E94730061E0CE010E948A
:100110007300DF91CF910895EF92FF920F931F9399
:10012000CF93DF938C01EB01790160E070E0742FD5
:10013000680F791F84E490E00E947F00BE0185E48F
:1001400090E00E947F00B70186E490E00E947F006B
:10015000B8018EE490E00E947F00BE018FE490E041
:100160000E947F0060E082E290E00E947300DF91D5
:10017000CF911F910F91FF90EF9008958FEF8ABB61
:1001800081BB84B3836C84BB8EEB87BB87B38660F3
:1001900087BB88B3866088BB8FEF93E20197F1F746
:1001A00000C00000C1988FEF97E40197F1F700C0FD
:1001B0000000C19AAF9AAE9AA9988FEF9FE8019775
:1001C000F1F700C0000061E070E080E090E00E9484
:1001D0007F0083E397E00197F1F764EA78EA83E030
:1001E00090E00E947F0083E397E00197F1F760E0E1
:1001F00070E08CE090E00E947F0083E397E001973D
:10020000F1F76CE078E08DE090E00E947F0083E3FE
:1002100097E00197F1F760E07BE28EE090E00E94CA
:100220007F0083E397E00197F1F760EB70E08EE1E8
:1002300090E00E947F0083E397E00197F1F76FE37E
:100240007BE281E090E00E947F0083E397E00197EA
:10025000F1F760E076E082E090E00E947F0083E3C7
:1002600097E00197F1F760E070E080E190E00E9494
:100270007F0083E397E00197F1F760E770E681E1A3
:1002800090E00E947F0083E397E00197F1F760E040
:1002900070E085E090E00E947F0083E397E00197A3
:1002A000F1F760E070E086E090E00E947F0083E379
:1002B00097E00197F1F76CE17FEE86E190E00E9414
:1002C0007F0083E397E00197F1F763E070E087E157
:1002D00090E00E947F0083E397E00197F1F763E3EA
:1002E00072E087E090E00E947F0083E397E001974F
:1002F000F1F760E070E08BE090E00E947F0083E324
:1003000097E00197F1F760E070E08FE090E00E94E5
:100310007F0083E397E00197F1F760E070E081E40C
:1003200090E00E947F0083E397E00197F1F760E09F
:1003300070E082E490E00E947F0083E397E0019701
:10034000F1F760E070E088E490E00E947F0083E3D2
:1003500097E00197F1F76FE371E089E490E00E9484
:100360007F0083E397E00197F1F760E070E08AE4B3
:1003700090E00E947F0083E397E00197F1F760E04F
:1003800070E08BE490E00E947F0083E397E00197A8
:10039000F1F760E07FEE84E490E00E947F0083E369
:1003A00097E00197F1F760E070E085E490E00E944B
:1003B0007F0083E397E00197F1F76FE371E086E454
:1003C00090E00E947F0083E397E00197F1F767E0F8
:1003D00077E080E390E00E947F0083E397E001975D
:1003E000F1F764E072E081E390E00E947F0083E334
:1003F00097E00197F1F764E072E082E390E00E94F9
:100400007F0083E397E00197F1F762E075E083E313
:1004100090E00E947F0083E397E00197F1F767E0A7
:1004200075E084E390E00E947F0083E397E001970A
:10043000F1F764E072E085E390E00E947F0083E3DF
:1004400097E00197F1F764E072E086E390E00E94A4
:100450007F0083E397E00197F1F762E075E087E3BF
:1004600090E00E947F0083E397E00197F1F762E05C
:1004700073E08AE390E00E947F0083E397E00197B6
:10048000F1F762E073E08BE390E00E947F0083E38A
:1004900097E00197F1F760E070E083E290E00E945E
:1004A0007F0083E397E00197F1F760E070E084E27A
:1004B00090E00E947F0083E397E00197F1F760E00E
:1004C00070E08FE490E00E947F0060E070E08EE4D6
:1004D00090E00E947F0060E082E290E00E94730062
:1004E0000895CF93DF93EB01BC018EE490E00E946E
:1004F0007F0060E471E06C1B7D0B8FE490E00E9454
:100500007F0060E082E290E00E947300DF91CF9173
:1005100008950F931F93CF93DF93EC018B0183E337
:1005200097E00197F1F7C49880E90E944D00E3E35A
:10053000F7E03197F1F7C79A0000000000000000D3
:10054000C79800000000000000000E9462009C01AB
:1005500020553109ABEABAEA0E94680F9695879553
:1005600096958795F8019183808380ED0E944D00D8
:10057000C79A0000000000000000C79800000000BB
:10058000000000000E9462008055910996958795B1
:10059000969587959695879599838883C49ADF91D8
:1005A000CF911F910F910895EF92FF920F931F9398
:1005B000CF938C012FE331E04FEE50E060E070E02C
:1005C00080E090E00E948C006894EE24E6F8FF241E
:1005D000F394C0EF61E0C8010E947300C150D1F7ED
:1005E00081E0E81AF108A9F7CF911F910F91FF90D0
:1005F000EF900895CF93DF93EA01AF980E947102C4
:1006000061E0CE010E947300AF9ADF91CF9108950F
:100610008F929F92AF92BF92CF92DF92EF92FF9212
:100620000F931F93CF93DF932223E9F0A22E6A0149
:100630004B01082F192FB12C8FEF820F7B019FEFF9
:10064000E91AF90AE80EF11CE401A601BE01C8018D
:100650000E94FA022196CE15DF05B9F7B3940F5F19
:100660001F4FAB10F1CFDF91CF911F910F91FF90F2
:10067000EF90DF90CF90BF90AF909F908F900895B4
:100680002F923F924F925F926F927F928F929F92A2
:10069000AF92BF92CF92DF92EF92FF920F931F9390
:1006A000CF93DF9300D000D0CDB7DEB789839A8394
:1006B0006B01542E39011801F12C4701880C991C4B
:1006C000880C991CC4018E0D9F1D9C0123513F4F26
:1006D00049010F2EF5E04F2EF02DA42EB12CF40180
:1006E000E1904F0109811A811C821B82F12CC70104
:1006F0000B8002C0959587950A94E2F780FF07C0AA
:10070000252DA301B601C8010E94080306C0252DAE
:10071000A101B601C8010E9408032B813C812F5F13
:100720003F4F3C832B830A0D1B1D28303105F9F602
:10073000CA0CDB1C4A944110D2CF0F900F900F903F
:100740000F90DF91CF911F910F91FF90EF90DF906D
:10075000CF90BF90AF909F908F907F906F905F9061
:100760004F903F902F9008953F924F925F926F92DB
:100770007F928F929F92AF92BF92CF92DF92EF9231
:10078000FF920F931F93CF93DF93EB01342E490118
:1007900028016701A42EB12C9501220F331F220FCF
:1007A000331FA20EB31E2FEFA21AB20AF12C3C0186
:1007B000640E711CF601EF0DF11D8081803261F431
:1007C0000F2EFAE1EF2EF02D82019401432DBE0190
:1007D000C3010E944003A5C0803361F40F2EFBE1EA
:1007E000EF2EF02D82019401432DBE01C3010E9422
:1007F000400397C0813361F40F2EFCE1EF2EF02D02
:1008000082019401432DBE01C3010E94400389C0AF
:10081000823361F40F2EFDE1EF2EF02D8201940161
:10082000432DBE01C3010E9440037BC0833361F4AA
:100830000F2EFEE1EF2EF02D82019401432DBE011B
:10084000C3010E9440036DC0843361F40F2EFFE1A9
:10085000EF2EF02D82019401432DBE01C3010E94B1
:1008600040035FC0853359F46894EE24E5F88201B3
:100870009401432DBE01C3010E94400352C0863340
:1008800061F40F2EF1E2EF2EF02D82019401432D41
:10089000BE01C3010E94400344C0873361F40F2EA0
:1008A000F2E2EF2EF02D82019401432DBE01C3012F
:1008B0000E94400336C0883361F40F2EF3E2EF2E1E
:1008C000F02D82019401432DBE01C3010E9440031B
:1008D00028C0893361F40F2EF4E2EF2EF02D82014F
:1008E0009401432DBE01C3010E9440031AC08A3304
:1008F00061F40F2EF5E2EF2EF02D82019401432DCD
:10090000BE01C3010E9440030CC00F2EFFEBEF2E6F
:10091000F02DE80E82019401432DBE01C3010E9417
:100920004003F394CA0DDB1DF601EF0DF11D80812C
:10093000811140CFDF91CF911F910F91FF90EF90E8
:10094000DF90CF90BF90AF909F908F907F906F90EF
:100950005F904F903F900895CF92DF92EF92FF9279
:100960000F931F93CF93DF936C01EB018A01790101
:100970006417750748F4A701BE01C6010E94FA0278
:100980002196C017D107B8F3DF91CF911F910F9136
:10099000FF90EF90DF90CF900895CF92DF92EF928B
:1009A000FF920F931F93CF93DF936C01EB018A01AA
:1009B00079016417750748F4A701B601CE010E94BA
:1009C000FA022196C017D107B8F3DF91CF911F919A
:1009D0000F91FF90EF90DF90CF9008955F926F920C
:1009E0007F928F929F92AF92BF92CF92DF92EF92BF
:1009F000FF920F931F93CF93DF934115510509F198
:100A000049018A017B016C01612C712C512C5A0126
:100A1000A60EB71EE601C60DD71DB701660D771DE0
:100A2000A401CE010E94FA02B50166197709A4015A
:100A3000CE010E94FA025394652C712C6016710647
:100A400048F3DF91CF911F910F91FF90EF90DF90CE
:100A5000CF90BF90AF909F908F907F906F905F905E
:100A600008952F923F924F925F926F927F928F9252
:100A70009F92AF92BF92CF92DF92EF92FF920F932D
:100A80001F93CF93DF9319013C01640E751E2A0159
:100A9000460E571ECC27DD27C41BD50B4E01880CF4
:100AA000991C22E0820E911C00E010E0A10162017D
:100AB000C00ED11EB6017301EC1AFD0AC7010E94D7
:100AC000FA02A101B6015301AC0EBD1EC5010E9480
:100AD000FA02A1016201C01AD10AB601C5010E9441
:100AE000FA02A101B601C7010E94FA020815190510
:100AF000ACF00F5F1F4FC801880F991F0196880D3A
:100B0000991D222733272C1B3D0B0217130739F49D
:100B1000C815D9053CF0812C912C01C0C401C81521
:100B2000D90554F421964E01880C991C2FEF821A96
:100B3000920A880E991E01C04C011C161D060CF06D
:100B4000B5CFDF91CF911F910F91FF90EF90DF9084
:100B5000CF90BF90AF909F908F907F906F905F905D
:100B60004F903F902F900895AF92BF92CF92DF9217
:100B7000EF92FF920F931F93CF93DF936C015B0172
:100B80007A01EB01C20FD31F9801AE010E94AC04A1
:100B9000EC0CFD1C9801AE01B501C7010E94AC042C
:100BA0009801A701B601C5010E94CD049801A701D3
:100BB000B601CE010E94CD04DF91CF911F910F911C
:100BC000FF90EF90DF90CF90BF90AF900895EF929D
:100BD000FF920F931F93FC016217730780F0E20EE0
:100BE000F31EE616F70668F08417950760F0040F09
:100BF000151F81E00E171F0738F480E005C080E064
:100C000003C080E001C080E01F910F91FF90EF9042
:100C100008953F924F925F926F927F928F929F9230
:100C2000AF92BF92CF92DF92EF92FF920F931F93FA
:100C3000CF93DF9300D0CDB7DEB73C01512C0F2E00
:100C4000FBE68F2EF0E09F2EF02DCE0101965C0189
:100C50000F2EF9E33F2EF02D0F2EF3E24F2EF02D45
:100C6000F30181913F011F928F939F928F92BF92C8
:100C7000AF920E94770F539CC12C1124C6948C2DE7
:100C8000880F880F880F8C0DE52CE81A4E9C700198
:100C900011244C9C60011124B701665F7F4F0FEF58
:100CA0001FEF2EE130E04EE150E0C6018A5B9F4F1E
:100CB0000E94B405B7016F5E7F4F75010EEA1AE11D
:100CC0002FEF3FEF43E0C601875B9F4F0E94B403C5
:100CD00053940F900F900F900F900F900F90F6E19C
:100CE0005F12BECF0F900F90DF91CF911F910F91A8
:100CF000FF90EF90DF90CF90BF90AF909F908F903C
:100D00007F906F905F904F903F900895EF92FF9289
:100D10000F931F930FEF1FEF28E131E04CE350E0FA
:100D200064E170E08AE090E00E94B4050F2EFFE6D7
:100D3000EF2EF0E0FF2EF02D0EEA1AE12FEF3FEF3D
:100D400043E065E570E08CE190E00E94B4030FEFB2
:100D50001FEF28E131E04CE350E064E170E080E512
:100D600090E00E94B4050F2EFBE7EF2EF0E0FF2E7F
:100D7000F02D0EEA1AE12FEF3FEF43E06EE370E053
:100D800082E690E00E94B4030FEF1FEF28E131E00C
:100D90004CE350E064E170E086E990E00E94B40525
:100DA0000F2EFAE8EF2EF0E0FF2EF02D0EEA1AE1FA
:100DB0002FEF3FEF43E066E470E088EA90E00E94A6
:100DC000B4031F910F91FF90EF900895EF92FF925F
:100DD0000F931F930FEF1FEF20E530E048E250E044
:100DE0006AE070E08AE090E00E94B4050F2EF8E916
:100DF000EF2EF0E0FF2EF02D0EEA1AE12FEF3FEF7D
:100E000043E064E170E082E190E00E94B4031F914E
:100E10000F91FF90EF9008958EEA9AE10E94D4021C
:100E2000089580E0A4E6B0E090E2FD01019000208A
:100E3000E9F73197E456F040282F30E02E173F07AE
:100E400030F4F901EC59FF4F90838F5FEECF109291
:100E5000B801089520916300222361F0E82FF92F53
:100E600080E04FEF5FEF5283418313828F5F3B96A9
:100E70008213F9CF85E0809362008093610008952A
:100E800089E0EEEAF1E0DF011D928A95E9F781E061
:100E9000809360001092AD011092AC0108958F9282
:100EA0009F92AF92BF92CF92DF92EF92FF920F93F9
:100EB0001F93CF93DF93B0992CC059016A01EB01C6
:100EC0004C010E948902688179810F2EF0E5EF2E96
:100ED000F12CF02D08E210E02AE030E04AE050E08A
:100EE000F401808191810E94E705882391F0F60149
:100EF0008081813019F40E94110709C0823011F0FD
:100F0000843029F4C5010E942A070E944007F60197
:100F10001082DF91CF911F910F91FF90EF90DF90A2
:100F2000CF90BF90AF909F908F900895EF92FF92D7
:100F30000F931F93CF93DF93CDB7DEB72B970FB6E9
:100F4000F894DEBF0FBECDBF2091630030E021508A
:100F50003109121613060CF055C040E050E0F12C98
:100F60007BE02091630030E0241B350B21503109D8
:100F700012161306DCF560E0769F900111248C01B7
:100F8000020F131F255F3F4F280F391FD801FC9117
:100F9000D901EC91FE17E8F40F2EFBE0EF2EF02DB7
:100FA000F801DE01119601900D92EA94E1F70F2EFF
:100FB000FBE0EF2EF02DF901D80101900D92EA949B
:100FC000E1F71BE0FE013196D90101900D921A95CF
:100FD000E1F76F5FE62FF0E02091630030E0241B23
:100FE000350B21503109E217F30734F2F3944F2DFA
:100FF00050E02091630030E021503109421753073F
:101000000CF4AFCF2B960FB6F894DEBF0FBECDBF5A
:10101000DF91CF911F910F91FF90EF9008958F92E4
:101020009F92AF92BF92CF92DF92EF92FF920F9377
:101030001F93CF93DF9300D0CDB7DEB7A82EB92E84
:10104000862E0E9496070F2EFEE9EF2EF0E0FF2E6F
:10105000F02D0EEA1AE12FEF3FEF43E064E670E077
:1010600089E190E00E94B4030F2EF4EAEF2EF0E045
:10107000FF2EF02D2FEF3FEF43E068EC70E089E1A9
:1010800090E00E94B4031A82882071F1CA2CDB2CF4
:101090000F2EF0E5AF2EB12CF02D912CF6018081B2
:1010A000805D89837601F4E0EF0EF11C0EEA1AE10F
:1010B0002FEF3FEF43E064E670E0C5010E94B40308
:1010C000CE0101967C012FEF3FEF43E06AEF70E025
:1010D000C5010E94B40393949BE0C90ED11CE8E2C1
:1010E000AE0EB11C8910DACF0F900F90DF91CF9127
:1010F0001F910F91FF90EF90DF90CF90BF90AF9036
:101100009F908F9008952F923F924F925F926F928F
:101110007F928F929F92AF92BF92CF92DF92EF9287
:10112000FF920F931F93CF93DF93662309F45AC066
:10113000262EC82ED92E512C80E00F2EF2E84F2EED
:10114000F02D0F2EFFE03F2EF02D06C081E085151B
:1011500010F080E001C082E3760194E0E90EF11C1A
:10116000E70109900020E9F72197CE19DF0950FA2D
:10117000662460F8712C469C4001479C900C112419
:10118000A82EB12CF60101811281B4016C5E7F4F53
:1011900028E730E048E250E0C5018A5B9F4F0E949B
:1011A000B405F601218132813C9EC0013D9E900D27
:1011B000112468E770E0681B790B769567957727AF
:1011C0006C5E7F4F680D791D0EEA1AE143E0C501A0
:1011D000825B9F4F0E94B4035394FBE0CF0ED11C5F
:1011E0002510B4CFDF91CF911F910F91FF90EF9019
:1011F000DF90CF90BF90AF909F908F907F906F9037
:101200005F904F903F902F900895EF92FF920F9331
:101210001F930FEF1FEF2CE330E048E250E06AEF3E
:1012200070E08EEB90E00E94B4050F2EFCEAEF2EEA
:10123000F0E0FF2EF02D0EEA1AE12FEF3FEF43E032
:1012400069E071E086EC90E00E94B4031F910F9179
:10125000FF90EF900895EF92FF920F931F930FEF7F
:101260001FEF2CE330E048E250E064EB70E08EEBDF
:1012700090E00E94B4050F2EF0EBEF2EF0E0FF2E71
:10128000F02D0EEA1AE12FEF3FEF43E06BEB70E039
:1012900086EC90E00E94B4031F910F91FF90EF90B5
:1012A0000895EF92FF920F931F930FEF1FEF2AE520
:1012B00030E048E250E06CED70E08EEB90E00E9490
:1012C000B4050F2EF5EBEF2EF0E0FF2EF02D0EEA19
:1012D0001AE12FEF3FEF43E063EE70E086EC90E021
:1012E0000E94B4031F910F91FF90EF900895EF9229
:1012F000FF920F931F93CF93DF93CDB7DEB7629723
:101300000FB6F894DEBF0FBECDBF209161004BE059
:10131000BC01429F600D711D11249B012C5F3F4F4A
:101320003F932F9320916200429F800D911D1124C5
:1013300004969F938F9384EE90E09F938F93CE01BA
:1013400001967C019F938F930E94770FF701019084
:101350000020E9F73197EE19FF09CF01880F991F97
:10136000EE0FFF1FEE0FFF1FEE0FFF1FE80FF91F1D
:101370006CED70E06E1B7F0B769567957727665A4C
:101380007F4F0EEA1AE12FEF3FEF42E08AE090E054
:101390000E94B4030FB6F894DEBF0FBECDBF6296B5
:1013A0000FB6F894DEBF0FBECDBFDF91CF911F9176
:1013B0000F91FF90EF9008952FEF3FEF46EE50E032
:1013C0006DE270E08CEA90E00E94CD042FEF3FEFD9
:1013D00046EE50E06DE270E08AEE90E00E94CD04AF
:1013E0002FEF3FEF47E251E06EE670E08BE690E0D2
:1013F0000E94AC042FEF3FEF47E251E06EE670E051
:1014000089EA90E00E94AC040895EF92FF920F9356
:101410001F93CF93DF93EC010F2EFCEBEF2EF0E048
:10142000FF2EF02D0EEA1AE12FEF3FEF43E06AE0C6
:1014300070E08AE590E00E94B40380916000813002
:10144000B1F480916200FE019BE0899FE00DF11DE7
:1014500011247F0184E0E80EF11C2181328142E0F9
:101460006AE070E088E790E00E94B40317C08091C2
:101470006100FE019BE0899FE00DF11D11247F01B9
:1014800084E0E80EF11C218132810EEA1AE142E08B
:101490006AE070E088E790E00E94B403DF91CF91AA
:1014A0001F910F91FF90EF900895909160009130FF
:1014B00069F470E0685F7F4F90E029E633ED4AE21F
:1014C00050E006960E94EE0482E0089570E0685FA6
:1014D0007F4F90E02BE237EC47E150E003960E940B
:1014E000310581E00895AF92BF92DF92EF92FF92B3
:1014F0000F931F93CF93DF935C01EEEAF1E021EBB2
:1015000031E0DF018081882351F09181891307C088
:10151000D2808D1104C081E08093AD01A7C08D9170
:10152000882371F012969C911297891309C0159621
:10153000DC9015978D1104C081E08093AD0196C0B9
:101540003396A217B307F1F68091B201882309F40C
:10155000A5C0D12C9091AE01981304C02091B60182
:10156000921741F09091B001981309C02091B401F5
:10157000921305C091E09093AD01D82E05C08091E3
:10158000AD01882309F45CC00F2EF3ECEF2EF0E0E0
:10159000FF2EF02D0EEA1AE12FEF3FEF43E06AE055
:1015A00070E08AEA90E00E94B40381E0D81223C080
:1015B000809162000F2EFBE0DF2EF02DF501D89E0A
:1015C000E00DF11D11247F01C4E0EC0EF11C21811E
:1015D000328142E06AE070E088EC90E00E94B4035F
:1015E00080916200E501D89EC00DD11D1124888133
:1015F0008F5F888358C0809161000F2EFBE0DF2E43
:10160000F02DF501D89EE00DF11D11247F01D4E0ED
:10161000ED0EF11C218132810EEA1AE142E06AE00E
:1016200070E088EC90E00E94B40380916100E501D5
:10163000D89EC00DD11D112488818F5F888333C04F
:101640008091AC01893079F50F2EF9ECEF2EF0E0A6
:10165000FF2EF02D0EEA1AE12FEF3FEF43E06AE094
:1016600070E08AEA90E00E94B4031DC08091B2014C
:10167000882309F489CF6ECF0F2EF3ECEF2EF0E024
:10168000FF2EF02D0EEA1AE12FEF3FEF43E06AE064
:1016900070E08AEA90E00E94B403ADCF8091AD0182
:1016A000882371F2E9CFDF91CF911F910F91FF90C5
:1016B000EF90DF90BF90AF900895CF93DF93CDB7B9
:1016C000DEB7C058D1090FB6F894DEBF0FBECDBF4C
:1016D0000E94BE000E9449008EEA9AE10E94D40254
:1016E0001D8286E1EEECF0E0DE01169601900D928F
:1016F0008A95E1F7E8E4F0E0EC0FFD1F349688E40A
:1017000090E08C0F9D1F0B9621E421938E179F076D
:10171000E1F763961FAE6397E3E5F0E0EC0FFD1F82
:10172000349683E590E08C0F9D1F0B9622E4219365
:101730008E179F07E1F76E961FAE6E97EEE5F0E00D
:10174000EC0FFD1F34968EE590E08C0F9D1F0B96DD
:1017500023E42193E817F907E1F7A9961FAEA997AB
:10176000E9E6F0E0EC0FFD1F349689E690E08C0F7F
:101770009D1F0B9624E42193E817F907E1F7E496FF
:101780001FAEE49729961FAE29978FEF9FEF2B96F8
:101790009FAF8EAF2B972C961FAE2C972BE0FE01A0
:1017A000E85BFF4FDE015C9601900D922A95E1F710
:1017B00022E064962FAF649766969FAF8EAF6697D0
:1017C00021E067962FAF67972BE0FE01ED5AFF4FA0
:1017D000DE01979601900D922A95E1F727E06F962A
:1017E0002FAF6F97A1969FAF8EAFA197A2961FAE16
:1017F000A2972BE0FE01E25AFF4FDE01D296019044
:101800000D922A95E1F724E0AA962FAFAA97AC96FD
:101810009FAF8EAFAC97AD961FAEAD978BE0FE013C
:10182000E759FF4FDE01DD9601900D928A95E1F7B1
:10183000212C0F2EF2E83F2EF02DC158DF4F2882C9
:10184000CF57D0408D81811165C08091B701882329
:1018500021F00E940C072092B7010E948606B099E1
:10186000F1CFBE016D5F7F4FCE0101960E948902CC
:101870006B817C810F2EF8E1EF2EFF24F394F02D85
:101880000CE310E024E130E04AE050E089819A81E5
:101890000E94E705882331F00E940C0781E08093C5
:1018A000B7018D836B817C810F2EF8E1EF2EFF2431
:1018B000F394F02D0CE310E024E130E040E550E03B
:1018C00089819A810E94E705882339F00E940C07DC
:1018D00081E08093B70182E08D836B817C810F2E44
:1018E000F8E1EF2EFF24F394F02D0CE310E024E157
:1018F00030E046E950E089819A810E94E70588231B
:1019000009F4A0CF0E940C0781E08093B70183E027
:101910008D8398CF813009F036C10E94E606CE0152
:1019200006960E9409069E01245E3F4FAE014B5F62
:101930005F4FBE016D5F7F4FCE0101960E944F0742
:101940000E942B090E940509B0997CCFBE016D5FF2
:101950007F4FCE0101960E9489028B809C80A980D6
:10196000BA80712C0F2EF9E35F2EF02D0F2EF3E2CB
:101970006F2EF02D759C412D11244695842F880FD4
:10198000880F880F840F272D281B629E9001112439
:10199000265F3F4F649EA00111244A5B5F4F0F2ECC
:1019A000FEE1EF2EF12CF02D0EE110E0B401C501A7
:1019B0000E94E705882361F16090B80126E0621675
:1019C00009F473C20E940C078091B801E82FF0E07F
:1019D000EC59FF4FA6E0B0E0AC0FBD1FA70DB11D45
:1019E0009C91908311828F5F8093B8010F2EF4E653
:1019F000EF2EF0E0FF2EF02D0EEA1AE12FEF3FEF71
:101A000043E06AE070E088EC90E00E94B40304C018
:101A1000739446E17412AECF6B817C810F2EFCE390
:101A2000EF2EF12CF02D08E210E024EB30E04EEB2D
:101A300050E089819A810E94E7058823E9F160904E
:101A4000B80181E08615E0F46A946092B801E62D51
:101A5000F0E0EC59FF4F10820E940C070F2EF4E6C5
:101A6000EF2EF0E0FF2EF02D0EEA1AE12FEF3FEF00
:101A700043E06AE070E088EC90E00E94B4031CC090
:101A800091E0691219C02092B80180E2E4E6F0E02A
:101A900080830E940C070F2EF4E6EF2EF0E0FF2E5D
:101AA000F02D0EEA1AE12FEF3FEF43E06AE070E01D
:101AB00088EC90E00E94B4036B817C810F2EFCE3E4
:101AC000EF2EF12CF02D08E210E02AEF30E04EEB83
:101AD00050E089819A810E94E705882309F4B2CEFB
:101AE00030916300343009F4ADCE4091B801442305
:101AF00009F4A8CE20E0E4E6F0E001900020E9F748
:101B00003197E456F040822F90E08E179F0768F4DB
:101B1000E4E7F0E0EC0FFD1FE80FF91FDC01AC5922
:101B2000BF4F8C9184832F5FE6CFE4E7F0E0EC0FAA
:101B3000FD1FE40FF11D1482E5961FAEE5978FEFB0
:101B40009FEFE7969FAF8EAFE797E8961FAEE897B7
:101B5000A1E0B0E0AC0FBD1F9BE0399FA00DB11D0F
:101B600011245B968BE0FE01EC58FF4F01900D9223
:101B70008A95E1F73F5F309363000E9411070E944E
:101B80000C072D825FCE823009F0F6C00E94E60677
:101B90009E01245E3F4FAE014B5F5F4FBE016D5F04
:101BA0007F4FCE0101960E944F0760916300CE01E6
:101BB0004C960E9483080E945109B09943CEBE0101
:101BC0006D5F7F4FCE0101960E9489026090630095
:101BD000662009F4AEC08B809C80A980BA80712CED
:101BE000422D0AC0E1E0E71530F0C158DF4F4881CF
:101BF000CF57D04001C042E370FACC24C0F8D12CBA
:101C00003C9C90013D9C300D11242C5E3F4F50E0D8
:101C10004A5B5F4F0F2EF8E7EF2EF12CF02D08E214
:101C200010E0B401C5010E94E705882309F47EC0D5
:101C3000272D30E0E1E0F0E0EC0FFD1F4BE0749E5B
:101C4000E00DF11D1124848D958D8F3FEFEF9E07E0
:101C500099F5809162008530A9F48BE0829FF001B4
:101C6000839FF00D112481E090E08C0F9D1FE80F01
:101C7000F91F89E693ED958F848F81E0868F7092AE
:101C800062004AC080916100853009F045C08BE058
:101C9000829FF001839FF00D112481E090E08C0F72
:101CA0009D1FE80FF91F8BE297EC958F848F81E0E1
:101CB000868F7092610030C08936E3ED9E07A9F4EB
:101CC0008BE0829FF001839FF00D112481E090E072
:101CD0008C0F9D1FE80FF91F8FEF9FEF958F848F5B
:101CE00085E080936200168E17C08B32974CA1F46A
:101CF0008BE0829FF001839FF00D112481E090E042
:101D00008C0F9D1FE80FF91F8FEF9FEF958F848F2A
:101D100085E080936100168E9FEFEFE1F1E0915036
:101D2000E040F040E1F700C0000003C0739476107B
:101D300059CF6B817C810F2EFAE5EF2EF12CF02D1F
:101D400008E210E02CED30E04EEB50E089819A8102
:101D50000E94E705882309F475CD809162008530E3
:101D600009F470CD80916100853009F46BCD0E943B
:101D70000C0784E08D8366CD8330B1F40E94E606C3
:101D80009E01245E3F4FAE014B5F5F4FBE016D5F12
:101D90007F4FCE0101960E944F0760916300CE01F4
:101DA0004C960E940F084ECD843009F04BCD0E9416
:101DB000E6069E01245E3F4FAE014B5F5F4FBE01C2
:101DC0006D5F7F4FCE0101960E944F07CE014C966A
:101DD0000E9477090E94DC098091AD01811132CD0A
:101DE000CE014C960E94730ACE014C960E94050AC1
:101DF000B09928CDBE016D5F7F4FCE0101960E9444
:101E000089020F2EFEEA4F2EF1E05F2EF02D0F2EED
:101E1000FEE66F2E712CF02DC058DF4F6882C0583F
:101E2000D04042010F2EF2E3AF2EB12CF02D6B818A
:101E30007C810F2EFEE3EF2EF12CF02D0EE310E04F
:101E40009301A50189819A810E94E7058823B1F059
:101E5000F4018081811112C08091600080838091A3
:101E6000AC018F5F8093AC01C058DF4F6881C058D0
:101E7000D0408A2D0E94550A80936000FEE3AF0E89
:101E8000B11C2FEF821A920A4CEEA416B10479F617
:101E900083E0480E511C9EE3690E711CE8E26E1649
:101EA000E1E07E0609F0B8CFCDCC0F2EFCE3EF2E9B
:101EB000F12CF02D08E210E024EB30E04EEB50E086
:101EC000B401C5010E94E705882309F4F5CDBCCD16
:101ED000A29FB001B39FC001A39F700D811D11246B
:101EE000911DB29F700D811D1124911D0895AEE0CA
:101EF000B0E0EDE7FFE00C9438120D891E8986E012
:101F00008C831A8309838FEF9FE79E838D83AE01B5
:101F1000475E5F4F6F89788DCE0101960E94990FC1
:101F2000EF81F885E00FF11F10822E96E4E00C940B
:101F30005412ABE0B0E0EFE9FFE00C942A126C0120
:101F40007B018A01FC0117821682838181FFCCC14B
:101F5000CE0101963C01F6019381F70193FD859135
:101F600093FF81917F01882309F4BAC1853239F446
:101F700093FD859193FF81917F01853229F4B6010C
:101F800090E00E949011E7CF912C212C312CFFE1A1
:101F9000F315D8F08B3279F038F4803279F083324F
:101FA000A1F4232D20611DC08D3261F0803369F4CE
:101FB000232D216016C0832D8260382EE32DE4602E
:101FC0003E2E2AC0F32DF8601DC037FC2DC020ED39
:101FD000280F2A3040F08E32B9F436FC81C1232D0F
:101FE0002064322E19C036FE06C08AE0989E200D6D
:101FF0001124922E11C0EAE02E9E200D1124222ED3
:10200000F32DF0623F2E08C08C3621F4832D8068BA
:10201000382E02C0883641F4F70193FD859193FF75
:1020200081917F018111B3CF982F9F7D955493307B
:1020300028F40C5F1F4F9FE399830DC0833631F066
:10204000833771F0833509F059C021C0F8018081D0
:1020500089830E5F1F4F88248394912C530113C0F2
:102060002801F2E04F0E511CF801A080B18036FE2D
:1020700003C0692D70E002C06FEF7FEFC5010E94C1
:1020800085114C018201F32DFF773F2E16C02801E8
:1020900022E0420E511CF801A080B18036FE03C040
:1020A000692D70E002C06FEF7FEFC5010E947A11C9
:1020B0004C01F32DF0683F2E820133FC1BC0822DB2
:1020C00090E088169906B0F4B60180E290E00E9494
:1020D00090112A94F4CFF50137FC859137FE819158
:1020E0005F01B60190E00E94901121102A9421E036
:1020F000821A91088114910471F7E8C0843611F0B6
:10210000893641F5F80137FE07C06081718182810F
:1021100093810C5F1F4F08C060817181072E000CF6
:10212000880B990B0E5F1F4FF32DFF763F2E97FF05
:1021300009C090958095709561957F4F8F4F9F4F07
:10214000F0683F2E2AE030E0A3010E94CC11882ED7
:10215000861845C0853731F4232D2F7EB22E2AE014
:1021600030E025C0932D997FB92E8F36C1F018F439
:10217000883579F0B5C0803719F0883721F0B0C0C4
:10218000E92FE061BE2EB4FE0DC0FB2DF460BF2E22
:1021900009C034FE0AC0292F2660B22E06C028E0EE
:1021A00030E005C020E130E002C020E132E0F8017B
:1021B000B7FE07C060817181828193810C5F1F4FE0
:1021C00006C06081718180E090E00E5F1F4FA30127
:1021D0000E94CC11882E8618FB2DFF773F2E36FEED
:1021E0000DC0232D2E7FA22E891458F434FE0BC06F
:1021F00032FC09C0832D8E7EA82E05C0B82CA32CDE
:1022000003C0B82C01C0B92CA4FE0FC0FE01E80D1C
:10221000F11D8081803321F49A2D997EA92E09C069
:10222000A2FE06C0B394B39404C08A2D867809F048
:10223000B394A3FC11C0A0FE06C0B21488F4280C0D
:10224000922C9B180EC0B21460F4B60180E290E0AC
:102250000E949011B394F7CFB21418F42B1802C057
:10226000982C212CA4FE10C0B60180E390E00E94BF
:102270009011A2FE17C0A1FC03C088E790E002C045
:1022800088E590E0B6010CC08A2D867859F0A1FE51
:1022900002C08BE201C080E2A7FC8DE2B60190E0B3
:1022A0000E949011891438F4B60180E390E00E94F6
:1022B00090119A94F7CF8A94F301E80DF11D808173
:1022C000B60190E00E9490118110F5CF222009F410
:1022D00042CEB60180E290E00E9490112A94F6CF9F
:1022E000F6018681978102C08FEF9FEF2B96E2E186
:1022F0000C944612FC010590615070400110D8F713
:10230000809590958E0F9F1F0895FC01615070403D
:1023100001900110D8F7809590958E0F9F1F08951A
:102320000F931F93CF93DF93FB01238121FD03C004
:102330008FEF9FEF2CC022FF16C04681578124816A
:1023400035814217530744F4A081B1819D012F5F6D
:102350003F4F318320838C93268137812F5F3F4FFE
:102360003783268314C08B01EC01FB010084F185C7
:10237000E02D0995892BE1F6D80116968D919C9157
:102380001797019617969C938E931697CE01DF911F
:10239000CF911F910F910895FA01AA27283051F18A
:1023A000203181F1E8946F936E7F6E5F7F4F8F4F86
:1023B0009F4FAF4FB1E03ED0B4E03CD0670F781FE5
:1023C000891F9A1FA11D680F791F8A1F911DA11DCA
:1023D0006A0F711D811D911DA11D20D009F4689403
:1023E0003F912AE0269F11243019305D3193DEF6AB
:1023F000CF010895462F4770405D4193B3E00FD061
:10240000C9F7F6CF462F4F70405D4A3318F0495D4B
:1024100031FD4052419302D0A9F7EACFB4E0A6952E
:102420009795879577956795BA95C9F70097610550
:10243000710508959B01AC010A2E069457954795A6
:1024400037952795BA95C9F7620F731F841F951F9B
:10245000A01D08952F923F924F925F926F927F92AC
:102460008F929F92AF92BF92CF92DF92EF92FF92A4
:102470000F931F93CF93DF93CDB7DEB7CA1BDB0B50
:102480000FB6F894DEBF0FBECDBF09942A883988F5
:1024900048885F846E847D848C849B84AA84B984FC
:1024A000C884DF80EE80FD800C811B81AA81B98108
:1024B000CE0FD11D0FB6F894DEBF0FBECDBFED011C
:0624C0000895F894FFCF1F
:1024C6000105050420000000000000256300004E01
:1024D600455720504C41594552000043484F4F53F1
:1024E6004520504C4159455200004C454144455207
:1024F600424F4152445300004241434B00004E417B
:102506004D450000504F494E545300004F4B0000BC
:1025160044454C0000535441525400005455524E09
:102526003A0000574F4E3A000054494500004142D8
:10253600434445464748494A4B4C4D4E4F505253EB
:102546005455565A2573205653202573007E111173
:10255600117E7F494949363E414141227F41412210
:102566001C7F494949417F090909013E4149497A88
:102576007F0808087F00417F41002040413F017FDE
:10258600081422417F404040407F020C027F7F04B6
:1025960008107F3E4141413E7F090909063E4151EF
:1025A600215E7F09192946464949493101017F01C2
:1025B600013F4040403F1F2040201F3F4038403FE2
:1025C60063140814630708700807615149454300FE
:1025D600000000003E5149453E00427F40004261F6
:1025E6005149462141454B311814127F1027454564
:1025F60045393C4A49493003710905033649494979
:0C26060036064949291E00363600000047
:00000001FF
